:020000040800F2
:1000000038230020A10100085F2A000821290008E8
:100010005D2A000861080008613200080000000045
:10002000000000000000000000000000D12B0008CC
:10003000AD08000800000000612A0008D32B00086A
:10004000BB010008BB010008BB010008BB010008A0
:10005000BB010008BB010008AF080008B508000894
:10006000BB080008C1080008BB010008BB0100086C
:10007000BB010008BB010008BB010008BB01000870
:10008000BB010008BB010008BB010008BB01000860
:10009000BB010008BB010008BB010008BB01000850
:1000A000BB010008BB010008BB010008BB01000840
:1000B000752C0008BB010008BB010008BB0100084B
:1000C000BB010008BB010008BB010008BB01000820
:1000D000BB01000835320008BB010008BB01000865
:1000E000BB010008BB010008BB010008BB01000800
:1000F000BB010008BB010008BB010008BB010008F0
:10010000BB010008BB010008BB010008BB010008DF
:10011000BB010008BB010008BB010008BB010008CF
:10012000BB010008BB010008BB010008BB010008BF
:10013000BB010008BB010008BB010008BB010008AF
:10014000BB010008BB010008BB010008BB0100089F
:10015000BB010008BB010008BB010008BB0100088F
:10016000BB010008BB010008BB010008BB0100087F
:10017000BB010008BB010008BB0100080000000033
:10018000BB010008BB010008DFF810D000F056FBEF
:1001900000480047793C0008AFF300803823002076
:1001A0000648804706480047FEE7FEE7FEE7FEE711
:1001B000FEE7FEE7FEE7FEE7FEE7FEE7652C000848
:1001C000890100082DE9F05F0546002092469B4614
:1001D00088460646814640241BE02846414647465D
:1001E000224600F034F953465A46C01A914110D3C2
:1001F00011461846224600F01BF92D1A67EB01083C
:100200004F4622460120002100F012F917EB0009A9
:100210004E41201EA4F10104DFDC484631462A4647
:100220004346BDE8F09FD2B201E000F8012B491E21
:10023000FBD270470022F6E710B513460A46044683
:100240001946FFF7F0FF204610BD421C10F8011BB5
:100250000029FBD1801A70472DE9FE4F804681EAC4
:100260000300C00F0C46009021F0004123F0004530
:10027000B8EB0200A94105D24046214690461C46F3
:100280000B46024623F00040104347D0270DC7F32A
:100290000A00C3F30A510290401A019040286BDA19
:1002A000C3F3130040F4801B0098924620B1002352
:1002B000D2EB030A63EB0B0B01985946C0F14002E5
:1002C000504600F0B5F806460D4650465946019A8C
:1002D00000F0CDF810EB08006141002487EA1152CC
:1002E00084EAE7731A4340D0009A62B3019A012A64
:1002F0004FEA075215DC001B61EB02014FF0004290
:1003000002EA0752CDE90042001C41F58011324655
:100310002B4600F004F903B0BDE8F08F40462146BB
:10032000F9E7001B61EB0201001C41F58013001886
:100330005B412018A2F5001747EB030140EAD57096
:10034000B6196D4111E06D084FEA360645EAC075F1
:100350004FEA0752001B61EB0201001C41F58011BE
:1003600049084FEA30000019514132462B4603B08C
:10037000BDE8F04F00F0C4B800980122400000230F
:10038000D0EB020263EBE073009821464FEAE07481
:10039000B8EB000061EB0401E9E783F000435BE7A1
:1003A00081F0004158E700F0004230F000400AD0F0
:1003B000C10D01F56071C0F3160042EA0151C20897
:1003C00040071143704700200146704701F0004389
:1003D00030B421F0004150EA010206D00A0DA2F526
:1003E0006072C1F31301002A02DC30BC00207047A8
:1003F000440F44EAC104C100E01830BC00EBC25015
:1004000000F047B830B50B460146002020220124F9
:1004100009E021FA02F59D4205D303FA02F5491BD2
:1004200004FA02F52844151EA2F10102F1DC30BDE8
:10043000202A04DB203A00FA02F1002070479140A4
:10044000C2F1200320FA03F3194390407047202A99
:1004500004DB203A21FA02F00021704721FA02F36E
:10046000D040C2F120029140084319467047202A2B
:1004700006DBCB17203A41FA02F043EAE07306E0CC
:1004800041FA02F3D040C2F12002914008431946DC
:1004900070470029A8BF7047401C490008BF20F0E2
:1004A0000100704710B4B0FA80FC00FA0CF050EA7A
:1004B000010404BF10BC704749B1CCF1200421FAFB
:1004C00004F411FA0CF118BF012121430843A3EBF6
:1004D0000C01CB1D4FEA00614FEA102042BF002003
:1004E00010BC704700EBC35010440029A4BF10BCDF
:1004F0007047401C490008BF20F0010010BC704745
:1005000010B5141E73F1000408DA401C41F100011B
:1005100092185B411A4301D120F0010010BD2DE972
:10052000F04D92469B4611B1B1FA81F202E0B0FA69
:1005300080F220329046FFF77BFF04460F4640EAE8
:100540000A0041EA0B0153465A46084313D01146AC
:1005500053EA010019D0C8F140025046FFF777FF77
:1005600005460E46504659464246FFF761FF08438E
:1005700005D0012004E020463946BDE8F08D00207A
:10058000054346EAE0762C4337430A986305E40ABC
:10059000A0EB08000022FD0A44EA47540A3002D5C5
:1005A00000200146E9E7010510196941DDE9084528
:1005B00000196941BDE8F04DA2E72DE9FE4F81EA3F
:1005C000030404F0004421F0004100944FF0000BBC
:1005D00023F0004350EA01045ED052EA03045BD0EA
:1005E000C3F30A54C1F30A552C44A4F2F334019422
:1005F000A0FB0254C1F3130141F48011C3F31303B0
:1006000043F4801301FB024400FB034E840A970A63
:1006100044EA815447EA8357A4FB076802958D0A90
:1006200005FB07854FEA932C04FB0C542705029D1C
:100630004FEA065847EA1637B5EB08056EEB070C8C
:10064000870E920E47EA811742EA8312A7FB020146
:10065000B6EB0B0164EB00042B0D43EA0C335E1880
:1006600044EB1C50DA465146E7FB0201C5F3130484
:100670004FEA0B3343EA14534FEA0432019C43EA36
:100680000603A4F10C040294009CCDE900B4FFF72A
:1006900046FF03B0BDE8F08F00200146F9E72DE9E1
:1006A000F04D81EA030404F0004B21F000451446AC
:1006B0004FF0000A23F0004150EA050220D054EA2E
:1006C00001021DD0C5F30A570246C5F31303C1F357
:1006D0001300C1F30A5640F4801543F48013A7EBCE
:1006E0000608101BD64608F2FD3873EB050002D34E
:1006F00008F1010801E092185B41B8F1000F03DA3C
:1007000000200146BDE8F08D00204FF48011064620
:1007100084460EE0171B73EB050705D3121B63EB32
:10072000050306434CEA010C49084FEA30009218D1
:100730005B4150EA0107EDD152EA030012D082EA90
:10074000040083EA0501084305D0101BAB4106D223
:100750000122002306E000224FF0004302E06FF088
:10076000010253101AEB06004CEB085110EB0A0083
:1007700041EB0B01BDE8F04DFFF7C2BE0EB5C10F56
:1007800080EAE0700844CA07002140F233438DE854
:100790000E000A460B46FFF7C2FE03B000BD70B55F
:1007A000C1F30A5201F000450024C1F3130140F2E5
:1007B000FF3341F480119A4201DA002070BD40F20B
:1007C00033439A42A2F2334203DC5242FFF73FFE28
:1007D00000E090402C43F1D0404270BD30B5041E83
:1007E00071F1000404DB4FF00044404264EB01016E
:1007F000141E73F1000405DB1C464FF00043524207
:1008000063EB04038B4208BF824230BD30B5041E47
:1008100071F1000404DB4FF00044404264EB01013D
:10082000141E73F1000405DB1C464FF000435242D6
:1008300063EB0403994208BF904230BD064C074D5C
:1008400006E0E06840F0010394E8070098471034A0
:10085000AC42F6D3FFF79CFCF83D0008183E0008B8
:10086000FEE7000010B50E4801F038FA062002F04D
:1008700046FD072002F043FD082002F040FD09205C
:1008800002F03DFD14210748FFF7D4FC0649002083
:1008900008600871103948700120087010BD000010
:1008A000A8000020940000201000002070470120C4
:1008B00000F00CBA022000F009BA042000F006BAD9
:1008C000082000F003BA000072B602A002F0CAFCD1
:1008D000FBE700004572726F725F48616E646C6581
:1008E000720D0A002DE9F04707462DED0A8B88B0FE
:1008F0009FED588A20216846FFF79CFC564EDFF892
:100900005C810025DFED568A9FED569AA6F118040A
:10091000A8F1300906EBC500D4ED030A94ED020AF4
:1009200090EC021A03F06CF9E088F0EE409A06EBC6
:10093000C000D4ED030A94ED020A90EC021A03F011
:100940005FF958F8250039EEC00A00EE900A09EB6D
:1009500085016D1CB8EE601AEDB2042DC1EE280AB7
:1009600000EEC90A81ED000AB0EEC00A30EE088A36
:10097000D0D3B3EE040AC846C8EE008ADFF8DC9094
:100980009FED399B9FED3ABA0025EA46B1EE04AAE5
:10099000F2EE04AAF7EE00BAA9F1200908EB8506E9
:1009A00096ED000AC0EE080AC6ED000AA08800EE27
:1009B000100AB8EE400A38EE80CA00EE107AF8EE5F
:1009C000400A80EE8A0A30EE6A0A10EE100AFFF73B
:1009D000EAFC41EC100B02F0BFFC53EC192B51EC7C
:1009E000100BFFF739FCFFF7F1FC00EE100A02F0E4
:1009F0005FFEC0EE0B0A09EBC50096ED001A0AEB8C
:100A0000C5016D1CEDB2042D3BEEE00AD0ED000AED
:100A10002CEE000A60EE810A60EE800AC1ED000A49
:100A2000D0ED011A21EE811A21EE000A81ED010AB2
:100A300094ED021A70EE810AC4ED020AD4ED030AA5
:100A400030EE200A84ED030AA8D308B0BDEC0A8B6F
:100A5000BDE8F0870000000018000020940000208E
:100A60000024F44C0000AA43000000000000F03F06
:100A70006666263F2DE9F0412A4FDFF8AC8000245E
:100A80002DED028BA7F1180607EBC401F08891ED5C
:100A9000000A07EBC00208EBC405D2ED000A84424D
:100AA00030EE600A85ED000AD1ED010A92ED011ADF
:100AB00070EEC10AC5ED010A21D003F03DF9B0EE98
:100AC000408AB0EE080A02F0A9FE68EE000A95ED31
:100AD000001A81EE200A85ED000AD5ED010A03F027
:100AE0002BF9B0EE408AB0EE080A02F097FE28EE2D
:100AF000000AD5ED010A80EE801A85ED011A641C0A
:100B0000E4B2042CC0D3002404E02046FFF7EAFE40
:100B1000641CE4B270888442F7D3BDEC028BBDE85C
:100B2000F081000018000020740000202DE9F04141
:100B30000446876D00F054FA064694F83500002507
:100B4000022806D08020606584F834500120BDE87A
:100B5000F0812068016821F0160101602068416978
:100B600021F080014161206C08B9A06C20B120689F
:100B7000016821F0080101602068016821F001018D
:100B800001600CE000F02CFA801B052807D920201A
:100B90006065032084F8350084F83450D7E7206876
:100BA0000068C007EED194F85C103F208840B86020
:100BB000012084F8350084F834500020C7E790F80D
:100BC0003510022903D0802141650120704705219D
:100BD00080F835100068016821F0010101600020F3
:100BE0007047000070B5044600F0FAF90546601C35
:100BF00002D004480078044400F0F2F9401BA042FF
:100C0000FAD370BD440000202DE9F04129490B784A
:100C10002B4D2949294A2B4C2E6823B3002373629C
:100C2000022685F83D602E68F76847F00107F760F7
:100C30002D682E6846F001062E600125012806D099
:100C4000022807D0042808D008282DD108E04B60DE
:100C5000557017E08B60957019E0CB60D5701BE084
:100C60000B6115711DE0736A174D01282B6006D0CA
:100C7000022809D004280CD0082815D10EE04B60BA
:100C80002078507006200DE08B602078907007204F
:100C900008E0CB602078D070082003E00B6120785A
:100CA0001071092002F01AFB2078401C2070BDE86A
:100CB000F0810000000000209400002010000020BF
:100CC000A80000200100002038000020044910B5D1
:100CD0000A68024202D00860FFF796FF10BD0000CC
:100CE000143C01402DE9F84FDFF888B20D46044668
:100CF00058451BD0A048844218D0A048844215D043
:100D00009F48844212D09F4884420FD09E4884421C
:100D10000CD09E48844209D09D48844206D09D480C
:100D2000844203D0AC219CA002F04CFF286801044F
:100D3000090C01D0000C03D0AD2197A002F042FFB6
:100D40006868F8B101281DD011281BD0022819D0DD
:100D5000122817D0B0F5881F14D0B0F5041F11D099
:100D6000B0F5441F0ED0B0F5901F0BD0B0F5081FA2
:100D700008D0B0F5481F05D0032803D0AE2186A0C7
:100D800002F020FF00264FF0010A4FF0030900BFD8
:100D90000AFA06F02F688046074047457ED1287939
:100DA00000F00300012801D002281DD1E86848B1F5
:100DB000012807D0022805D0032803D0C02176A03F
:100DC00002F000FFA168720009FA02F08143E868AE
:100DD00090400843A0606068297920EA0800C1F3C8
:100DE0000011B140014361602879C043800712D0EF
:100DF000A86838B1012805D0022803D0D12166A007
:100E000002F0E0FEE168720009FA02F08143A8688E
:100E100090400843E060287900F0030002282ED1BA
:100E20002869F8B109281DD001281BD0022819D043
:100E3000032817D0042815D0052813D0062811D070
:100E400007280FD008280DD00A280BD00B2809D06E
:100E50000C2807D00D2805D00F2803D0DE214EA086
:100E600002F0B0FEF00804EB8002106A7107CB0EAE
:100E70000F219940884329699940014311622068F4
:100E8000720009FA02F18843297901F003019140C7
:100E900001432160686810F4403F00E063E062D0E5
:100EA0004C48016841F480410160006826F003016C
:100EB00000F48040009048480A18D2F80808B107AA
:100EC0000B0F0F21994088435C4501D1002123E09D
:100ED00029498C4201D101211EE028498C4201D1CF
:100EE000022119E026498C4201D1032114E0254951
:100EF0008C4201D104210FE023498C4201D105210C
:100F00000AE022498C4201D1062105E020498C42A9
:100F100001D1072100E0082199400143C2F80818D7
:100F20002E4908686A68B843D20200D53843086081
:100F30002A49091D08686A68B843920200D53843F7
:100F400008602649091F08686A68B843920300D5FB
:100F5000384308602149083908686A68B843D203F1
:100F600000D538430860761C102EFFF411AFBDE8A1
:100F7000F88F000000000240000402400008024018
:100F8000000C024000100240001402400018024011
:100F9000001C0240002002402E2E2F44726976650C
:100FA00072732F53544D3332463478785F48414C36
:100FB0005F4472697665722F5372632F73746D3359
:100FC00032663478785F68616C5F6770696F2E6332
:100FD000000000004438024000300140083C01405D
:100FE0000148806870470000440000200248816882
:100FF0000278114481607047440000200B4810B50E
:10100000016841F400710160016841F48061016090
:10101000016841F480710160032000F0C3F80F20E3
:1010200000F006F800F024F8002010BD003C02405B
:1010300070B50D4D04464FF47A712878B1FBF0F08D
:101040000A490968B1FBF0F000F0B6FC48B9102C71
:1010500007D200222146501E00F054F800206C6098
:1010600070BD012070BD0000440000205000002031
:101070000A4808B5016841F480410160006800F445
:10108000804000900548001F016841F080510160D8
:10109000006800F08050009008BD00004438024015
:1010A00010B5040003D5BC2107A002F08BFD002C75
:1010B00009DB04F01F01012088406109890001F16A
:1010C000E021C1F8000110BD2E2E2F447269766513
:1010D00072732F53544D3332463478785F48414C05
:1010E0005F4472697665722F5372632F73746D3328
:1010F00032663478785F68616C5F636F72746578AC
:101100002E63000070B515460C460646102A03D320
:10111000A82114A002F056FD102C03D3A92111A080
:1011200002F050FD1E480068C0F30223C3F107021D
:101130002046042A00D90422191D072901D20023C0
:1011400000E0DB1E012404FA02F1491E014099402F
:101150009C40641E2C4021433046BDE8704002F0A4
:10116000E8B800002E2E2F447269766572732F53F3
:10117000544D3332463478785F48414C5F4472694D
:101180007665722F5372632F73746D3332663478C1
:10119000785F68616C5F636F727465782E630000BE
:1011A0000CED00E010B5044607280BD0062C09D042
:1011B000052C07D0042C05D0032C03D0902108A0C7
:1011C00002F000FD154904F0070208684FF6FF031E
:1011D000184040EA0220124A1043086010BD000087
:1011E0002E2E2F447269766572732F53544D33320D
:1011F000463478785F48414C5F4472697665722F57
:101200005372632F73746D3332663478785F68611C
:101210006C5F636F727465782E6300000CED00E004
:101220000000FA052DE9F0470E4604007DD0206845
:10123000401E0E2804D940F25A217AA002F0C2FCC6
:1012400096B1012E10D0022E0ED0032E0CD0042EFB
:101250000AD0052E08D0062E06D0072E04D040F264
:101260005B2170A002F0AEFCDFF8F081D8F800003E
:10127000F7B200F00700B04207D288F80070D8F843
:10128000000000F00700B0424FD12068744D810784
:1012900029D5400703D5286840F4E050286020781D
:1012A000000703D5286840F460402860A068A0B11A
:1012B000802812D0902810D0A0280ED0B0280CD0B2
:1012C000C0280AD0D02808D0E02806D0F02804D0C2
:1012D00040F27E2153A002F075FC2868A16820F03E
:1012E000F000084328602078C00743D0DFF87091F1
:1012F0006068A9F1080988B1012822D0022824D009
:10130000032822D040F2852146A002F05BFC6068F1
:10131000012816D0022818D0032816D0D9F80000CA
:101320008007002833DA286800E030E0616820F0A8
:10133000030008432860FFF753FE814641F2883AD4
:1013400011E0D9F800008003EBE7D9F80000800134
:10135000E7E700BFFFF744FEA0EB0901514502D9C2
:101360000320BDE8F0872868616800F00C00B0EB4E
:10137000810FEFD1D8F80010404601F00701B142CB
:1013800007D90770006800F00700B04201D00120C3
:10139000E7E720784FF4805640074FF4A0574FF40A
:1013A000C0584FF4E05914D5E06860B1B0420AD09B
:1013B000B84208D0404506D0484504D040F2C32189
:1013C00018A002F0FFFB2868E16820F4E050084311
:1013D00028602078000715D5206960B1B0420AD096
:1013E000B84208D0404506D0484504D040F2CA2152
:1013F0000CA002F0E7FB2868216920F4604040EA75
:10140000C100286000F054F82968164AC1F303119E
:10141000515CC8401449086014480068FFF708FE92
:1014200000209EE72E2E2F447269766572732F532B
:10143000544D3332463478785F48414C5F4472698A
:101440007665722F5372632F73746D3332663478FE
:10145000785F68616C5F7263632E6300003C0240DA
:1014600008380240443D0008500000204800002099
:101470000448054900680968044AC1F38221515CA7
:10148000C84070475000002008380240543D000812
:101490000448054900680968044AC1F34231515CB7
:1014A000C84070475000002008380240543D0008F2
:1014B000154810B5006810F00C02144813D0411004
:1014C000042A0FD0082A0ED10F4C241F226823684B
:1014D00002F03F025B0207D52068C0F38810A0FB32
:1014E000010106E0084610BD2168C1F38811A1FB87
:1014F00000010023FEF766FE2168C1F30141491C8B
:101500004900B0FBF1F010BD083802400024F4009F
:101510002DE9F84F04007DD020680F2803D9E6217B
:10152000F7A002F04FFB2078DFF80C94C007A9F178
:10153000040555D060684FF480364FF4A02738B1C9
:10154000B04205D0B84203D0EB21EDA002F03AFB47
:10155000F948001D0168C1F38101012908D0006824
:10156000C0F3810002280AD1D9F80000400206D554
:101570002868800334D560680028CCD030E06068EB
:10158000B04203D1286840F480300CE0B8422868AB
:1015900003D140F480202860F4E720F480302860F4
:1015A000286820F480202860606860B1FFF718FD8B
:1015B000064604E0FFF714FD801B64287ED82868E7
:1015C0008003F7D50CE0FFF70BFD064605E000BFF2
:1015D000FFF706FD801B6428F0D828688003F7D445
:1015E0002078DFF8588380074FF0000A56D5E0686E
:1015F00030B1012804D040F21D11C1A002F0E2FA7E
:1016000020691F2804D94FF48F71BDA002F0DAFAC7
:10161000C94800E092E0001D016811F00C0F08D0ED
:101620000068C0F38100022810D1D9F80000400200
:101630000CD42868800702D5E06801287ED128688C
:10164000216920F0F80040EAC10017E0E068B8B175
:101650000120C8F80000FFF7C3FC064605E000BF04
:10166000FFF7BEFC801B0228A8D828688007F7D5A2
:10167000286820F0F801206941EAC00028600DE0E8
:10168000C8F800A0FFF7ACFC064604E0FFF7A8FC92
:10169000801B022892D828688007F7D4207800079A
:1016A0002ED5A54EA64F60697036D0B1012808D05E
:1016B0004FF4AF7192A002F085FA00E04BE160694F
:1016C00078B101203860FFF78BFC074605E000BFCA
:1016D000FFF786FCC01B0228C6D830688007F7D504
:1016E0000EE0C7F800A0FFF77BFC074605E000BF4F
:1016F000FFF776FCC01B0228B6D830688007F7D405
:101700002078400776D5A068002740B1012806D090
:10171000052804D04FF4C57179A002F053FADFF820
:1017200018B20BF13C0BDBF80000C0000DD4DBF865
:10173000001041F08051CBF8001000E038E1DBF8F8
:101740000000012700F0805000907E4E3068C005F8
:1017500011D4306840F480703060FFF741FC009095
:1017600006E000BFFFF73CFC0099401A022891D820
:101770003068C005F6D5704EA0686C3601280FD0D1
:101780000528306810D020F001003060306820F06B
:1017900004003060A068B8B1FFF722FC00900FE0B1
:1017A000306840F00100F4E740F004003060F7E7F3
:1017B000FFF716FC0099411A41F2883081428BD81C
:1017C00030688007F4D50EE0FFF70AFC009007E0D0
:1017D000FFF706FC0099411A41F2883081428BD80C
:1017E00030688007F4D42FB1DBF8001021F080516D
:1017F000CBF80010A069002876D0012809D0022873
:1018000007D040F2CD113EA002F0DCF9A06900281B
:10181000F2D04948001D0068C0F381000228A06989
:101820006DD0022805D0C8F860A0FFF7D9FB0446A8
:1018300094E0E06938B1B0F5800F04D04FF4EB715B
:101840002FA002F0BFF9206A3F2804D940F2D71137
:101850002BA002F0B7F9606A3238B0F5BF7F04D927
:101860004FF4EC7126A002F0ADF9A06A02280AD06C
:10187000042808D0062806D0082804D040F2D91140
:101880001FA002F09FF9E06A801E0D2804D94FF4D2
:10189000ED711BA002F096F94746C8F860A0FFF76B
:1018A0009FFB064605E000BFFFF79AFB801B02285E
:1018B00051D828688001F7D4D4E907010843A16A08
:1018C000214A490802EB0141626A41EA8211084358
:1018D00094F82C1040EA0161C9F800100120386624
:1018E000FFF77EFB044606E064E000BFFFF778FBED
:1018F000001B02282FD828688001F7D55AE031E074
:101900002E2E2F447269766572732F53544D3332E5
:10191000463478785F48414C5F4472697665722F2F
:101920005372632F73746D3332663478785F6861F5
:101930006C5F7263632E630004380240000047420C
:10194000800E4742007000400000FFFFFFF748FB99
:10195000001B022802D90320BDE8F88F2868800107
:10196000F4D427E00128F7D0D9F80000E26900F4A8
:10197000800191421CD1226A00F03F01914217D1AF
:1019800047F6C071626A0140B1EB821F10D1A26AB2
:101990004FF0FF3300F4403103EB5202B1EB024F42
:1019A00006D194F82C1000F07060B0EB016F01D0FC
:1019B0000120D1E70020CFE710B5401EB0F1807FB5
:1019C00001D3012010BD4FF0E02460610F216017AA
:1019D00001F0AFFC0020A06107202061002010BDB5
:1019E000704770472DE9F05F044600683A4E3B4F60
:1019F000DFF8EC80DFF8EC90DFF8ECA00D464FF05C
:101A0000804BB04215D0584513D0B84211D0404554
:101A10000FD048450DD04FEAB641884209D033492E
:101A2000884206D0504504D040F2B17130A002F097
:101A3000C9F8286890B1102810D020280ED030287E
:101A40000CD040280AD0502808D0602806D0702832
:101A500004D040F2B27126A002F0B4F86868802881
:101A600005D020B140F2B37121A002F0ABF894F898
:101A70003C0001282DD0012284F83C20022084F86B
:101A80003D00216848688B6820F0700C286840EAA7
:101A90000C0048602068B0420FD058450DD0B842C5
:101AA0000BD0404509D0484507D0504505D01F49C7
:101AB000884202D01E49884204D1696823F080031D
:101AC0001943816084F83D20002084F83C00BDE883
:101AD000F09F0220FBE700000000014000040040EE
:101AE00000080040000C00400004014000140040C9
:101AF0002E2E2F447269766572732F53544D3332F4
:101B0000463478785F48414C5F4472697665722F3D
:101B10005372632F73746D3332663478785F686103
:101B20006C5F74696D5F65782E6300000040014052
:101B30000018004010B5040058D03F492068884282
:101B40002BD0B0F1804F28D03C49884225D03C4969
:101B5000884222D03B4988421FD03B4988421CD052
:101B60003A49884219D03A49884216D039498842C0
:101B700013D03949884210D0384988420DD03849AD
:101B800088420AD03749884207D03749884204D072
:101B900040F2131135A002F015F8A06860B11028CA
:101BA0000AD0202808D0402806D0602804D04FF45E
:101BB0008A712EA002F006F8206950B1B0F5807F3E
:101BC00007D0B0F5007F04D040F2151127A001F036
:101BD000F9FFA06930B1802804D04FF48B7123A0A5
:101BE00001F0F0FF94F83D0010B107E0012010BDB6
:101BF000002084F83C00204600F054F8022084F8CD
:101C00003D00211D206801F03BF8012084F84600CA
:101C100084F83E0084F83F0084F8400084F84100D6
:101C200084F8420084F8430084F8440084F84500B6
:101C300084F83D00002010BD000001400004004079
:101C400000080040000C004000100040001400405C
:101C500000040140004001400044014000480140B0
:101C600000180040001C0040002000402E2E2F4491
:101C70007269766572732F53544D333246347878D7
:101C80005F48414C5F4472697665722F5372632FCF
:101C900073746D3332663478785F68616C5F746931
:101CA0006D2E630008B50068B0F1804F12D10A486C
:101CB000016841F0010101600068002200F00100AC
:101CC000009011461C20FFF71DFABDE808401C20BB
:101CD000FFF7E6B908BD00004038024010B50446E1
:101CE0000168214881422BD0B1F1804F28D01F4894
:101CF000814225D01E48814222D01E4881421FD0F9
:101D00001D4881421CD01D48814219D01C48814287
:101D100016D01C48814213D01B48814210D01B486A
:101D200081420DD01A4881420AD01A48814207D018
:101D30001948814204D040F2B91118A001F042FFC5
:101D40002068016A41F21112114207D1016A921012
:101D5000114203D1016821F001010160012084F8E2
:101D60003D00002010BD00000000014000040040C4
:101D700000080040000C004000100040001400402B
:101D8000000401400040014000440140004801407F
:101D900000180040001C0040002000402E2E2F4460
:101DA0007269766572732F53544D333246347878A6
:101DB0005F48414C5F4472697665722F5372632F9E
:101DC00073746D3332663478785F68616C5F746900
:101DD0006D2E63002DE9F84F05460020009095F820
:101DE0003C000C46012841D0012085F83C0002202F
:101DF00085F83D0020684FF4805B584516D0702868
:101E000014D0B0F5005F11D040280FD050280DD06D
:101E100060280BD050B1102808D0202806D03028D8
:101E200004D041F2B741D4A001F0CCFE286881680B
:101E300021F0770121F47F4181602068DC49DD4A8F
:101E4000DD4BDE4EDE4FDFF87CC3DFF87C834FF0E6
:101E500080494FF4004A50287ED00FDC202804D05F
:101E600007DC0028FBD0102877D161E10220BDE813
:101E7000F88F3028F9D04028F6D126E160286DD0BF
:101E8000702874D0584544D04FF400584045EBD1E9
:101E9000286888420ED048450CD090420AD098421B
:101EA00008D0B04206D0B84204D041F2E241B2A01C
:101EB00001F088FEA06858B1584509D0404507D0C8
:101EC000B0F5405F04D041F2E541ABA001F07AFEED
:101ED0006068504509D040B1022806D00A2804D0D5
:101EE00041F2E641A4A001F06DFEE0680F2804D99C
:101EF00041F2E741A0A001F065FED4E90121E368C9
:101F0000286800F021FF2868816841F480418160E1
:101F100029E128688842FBD04845F9D09042F7D0A3
:101F20009842F5D0B042F3D0A8498842F0D0A849F1
:101F30008842EDD0B842EBD06045E9D0A54988424F
:101F4000E6D0A5498842E3D04045E1D0A349884284
:101F5000DED0A349884203E04FE002E180E006E0E2
:101F6000D6D041F2C34184A001F02CFEFBE02868EA
:101F7000884212D0484510D090420ED098420CD0E2
:101F8000B0420AD0B84208D0604506D0404504D0DF
:101F900041F2CA4178A001F015FEA06860B1584531
:101FA0000AD0B0F5005F07D0B0F5405F04D041F231
:101FB000CD4171A001F006FE6068504509D040B1E6
:101FC000022806D00A2804D041F2CE416AA001F0CE
:101FD000F9FDE0680F2804D941F2CF4166A001F075
:101FE000F1FDD4E90121E368286800F0ADFE29681D
:101FF000886840F077008860B5E02868884212D091
:10200000484510D090420ED098420CD0B0420AD031
:10201000B84208D0604506D0404504D041F2F641B0
:1020200055A001F0CFFD6068504509D040B10228AD
:1020300006D00A2804D041F2F9414FA001F0C2FDB8
:10204000E0680F2804D941F2FA414BA001F0BAFD33
:10205000E2686168286800F089FE5021286831E054
:102060002868884212D0484510D090420ED098423D
:102070000CD0B0420AD0B84208D0604506D04045E6
:1020800004D041F206513CA001F09CFD606850452F
:1020900009D040B1022806D00A2804D041F20951E3
:1020A00035A001F08FFDE0680F2804D941F20A51F4
:1020B00031A001F087FDE2686168286800F067FEE2
:1020C0006021286800F04AFE4DE02868884212D05E
:1020D000484510D090420ED098420CD0B0420AD061
:1020E000B84208D0604506D0404504D041F21651B0
:1020F00021A001F067FD6068504509D040B1022879
:1021000006D00A2804D041F219511BA001F05AFD53
:10211000E0680F2804D941F21A5117A001F052FDCE
:10212000E2686168286800F021FE40212868C9E75C
:102130002868884212D0484510D090420ED098426C
:102140000CD0B0420AD0B84208D0604506D0404515
:1021500004D041F2295108A001F034FD216828681B
:10216000B0E701200090012085F83D00002085F8AF
:102170003C0000987BE600002E2E2F4472697665A5
:1021800072732F53544D3332463478785F48414C44
:102190005F4472697665722F5372632F73746D3367
:1021A00032663478785F68616C5F74696D2E6300A5
:1021B000000001400004004000080040000C004006
:1021C00000040140004001400018004000100040A1
:1021D000001400400044014000480140001C004041
:1021E00000200040704770B50446006801694FF058
:1021F0000005C943890715D4C168C943890711D4AB
:10220000E91E01610120207720688069800720464F
:1022100002D0FFF7E7FF04E000F098F8204600F056
:1022200096F8257720680169C943490717D4C16822
:10223000C943490713D46FF00401016102202077DC
:102240002068806910F4407F204602D0FFF7CAFF63
:1022500004E000F07BF8204600F079F8257720684C
:102260000169C943090716D4C168C943090712D4D3
:102270006FF008010161042020772068C0698007A1
:10228000204602D0FFF7AEFF04E000F05FF82046E2
:1022900000F05DF8257720680169C943C90617D4A5
:1022A000C168C943C90613D46FF010010161082049
:1022B00020772068C06910F4407F204602D0FFF7E5
:1022C00091FF04E000F042F8204600F040F8257746
:1022D00020680169C943C90708D1C168C943C90752
:1022E00004D1891E0161204600F032F8206801699E
:1022F000C943090609D4C168C943090605D46FF06A
:10230000800101612046FFF76BFB20680169C9432A
:10231000490609D4C168C943490605D46FF0400194
:102320000161204600F03CF820680169C943890634
:102330000BD4C168C943890607D46FF0200101613D
:102340002046BDE87040FFF74CBB70BD704770473A
:1023500010B50E48FFF7C2FC062000F0DDFF072095
:1023600000F0DAFF082000F0D7FF092000F0D4FFCA
:1023700014210748FDF75EFF064900200860087138
:102380000549087005490120087010BDA80000200B
:102390009400002010000020010000200000002018
:1023A00070477047704710F83D1F407808437047EA
:1023B000F8B5016804460868CA684B6910F00F0F49
:1023C0004FF0000559D003F0010602F4907737432F
:1023D00065D0C10705D0D10503D5216C41F00101BD
:1023E0002164410705D5D90703D0216C41F00201D2
:1023F0002164810705D5D90703D0216C41F0040180
:102400002164010707D502F02001314303D0216C7C
:1024100041F008012164216C00293AD0800604D5DE
:10242000900602D5204600F07BFD20684069216CB3
:10243000C0F38010090700D460B3204600F032FDDD
:1024400020684069400621D52068143050E8001FFC
:1024500021F0400140E80012002AF5D1A06BA8B19C
:102460006C490165A06BFEF7AAFB002811D0A06B98
:10247000016D01B0BDE8F040084783060FD5930613
:102480000DD52046BDE8F84000F04ABD2046FFF7D4
:1024900089FFF8BD2046FFF785FF2564F8BD266B50
:1024A0002023012E79D1C60677D5D60675D50868C2
:1024B000486800904869400640D5A16B08684068AC
:1024C0000004000CEAD0A28D8242E7D9E085C869F9
:1024D000B0F5807F2DD020680C3050E8001F21F42B
:1024E000807140E80012002AF5D12068143050E8CD
:1024F000001F21F0010140E80012002AF5D12068F8
:10250000143050E8001F21F0400140E80012002A7A
:10251000F5D184F83E30256320680C3050E8001F68
:1025200021F0100140E80012002AF5D1A06BFEF75F
:10253000FDFAA08DE18D401A81B229E0A08DE18DD8
:10254000401A81B2E08D0028A8D00029A6D02068CA
:102550000C3050E8002F22F4907240E80026002E44
:10256000F5D12068143050E8002F22F0010240E835
:102570000026002EF5D184F83E30256320680C300B
:1025800050E8002F22F0100240E80023002BF5D184
:102590002046FFF706FFF8BDFFE705062BD5150619
:1025A00029D594F83D002128F5D1A068B0F5805FC9
:1025B00001D12069B0B1206A411C216221680078F4
:1025C0004860E08C401E0004000CE084E3D12068E9
:1025D000C16821F08001C1602068C16841F04001FC
:1025E000C160D8E7206A0088C0F308004860206A0C
:1025F000801C2062E5E74006CDD55006CBD5CA68E1
:10260000204622F04002CA6084F83D3000F087F98D
:10261000C1E70000952E000870B5040023D0A06922
:102620003B4900283B4A3C4B3C4D20681DD088422A
:102630000CD090420AD0984208D0A84206D040F26E
:10264000731137A001F0BEFAA06908B3A069B0F514
:10265000807F1DD0B0F5007F1AD0B0F5407F17D035
:102660004FF4BA7111E0012070BD884210D0904241
:102670000ED098420CD03949884209D03849884256
:1026800006D0A84204D04FF4BC7125A001F09AFAFC
:10269000A06838B1B0F5805F04D04FF4BD7120A0C0
:1026A00001F090FAE06938B1B0F5004F04D040F283
:1026B0007B111BA001F086FA94F83D00002520B99B
:1026C00084F83C50204600F04DF8242084F83D006A
:1026D0002068C16821F40051C160204600F080FCF0
:1026E0002068016921F4904101612068416921F06D
:1026F0002A0141612068C16841F40051C16025642C
:10270000202084F83D0084F83E00002070BD0000C9
:102710000010014000440040004800400014014007
:102720002E2E2F447269766572732F53544D3332B7
:10273000463478785F48414C5F4472697665722F01
:102740005372632F73746D3332663478785F6861C7
:102750006C5F756172742E6300000000004C0040D5
:102760000050004010B586B0044614216846FDF7BD
:1027700061FD18492068884229D117480021026864
:1027800042F010020260006800F01000059012484C
:102790001438026842F001020260006800F0010093
:1027A00005904FF4C06000900220CDE901010320A4
:1027B00003900720049069460848FEF793FA002228
:1027C00011462520FEF79EFC2520FEF769FC06B089
:1027D00010BD0000001001404438024000000240DB
:1027E00090F83E30202B0ED159B152B190F83C30C8
:1027F000012B08D0012380F83C300023036300F054
:10280000BFBC01207047022070470000144B10B578
:10281000144A187999791154401CC1B219710329CD
:1028200016D9501810F8032CFF2A11D110F8022CD9
:10283000FF2A0DD110F8010CFF2809D1094800F03A
:1028400059FB002018714FF400610648FDF7F2FCB7
:1028500003490122BDE81040891D0348FFF7C0BFAE
:102860003C000020F0000020F01000202DE9F8438B
:10287000044690F83D001F4616460D4620284CD1D0
:10288000C5B1BEB194F83C00012846D0012084F8BF
:102890003C004FF00008C4F84080212084F83D003F
:1028A000FEF79EFBA6848146E684A068B0F5805FB3
:1028B00003D004E00120BDE8F883206928B12E464A
:1028C0005FF0000584F83C800EE00026FAE78021E6
:1028D000204600F072FCA0B9AEB116F8010B2168D9
:1028E0004860E08C401EE084E08C4B464FF00002D4
:1028F00000970028EBD14FF04001204600F05DFC2E
:1029000030B10320D7E735F8020BC0F30800E6E743
:10291000202084F83D000020CDE70220CBE770475F
:10292000FEE7000000B587B014216846FDF782FC81
:102930001E480021026842F080020260026802F034
:1029400080020592026842F001020260006800F015
:10295000010005900F2000904FF48810CDE901018F
:1029600069461348FEF7BEF9002211460620FEF71D
:10297000C9FB0620FEF794FB002211460720FEF754
:10298000C1FB0720FEF78CFB002211460820FEF752
:10299000B9FB0820FEF784FB002211460920FEF750
:1029A000B1FB0920FEF77CFB07B000BD30380240C8
:1029B0000000024010B586B0002415480094019430
:1029C0000294039404944FF080410594C0E90014EC
:1029D0001049C0E9024104618461FFF7ABF808B116
:1029E000FDF772FF4FF48050009069460848FFF7EA
:1029F000F1F908B1FDF768FF049404A904480594AF
:102A0000FEF7F0FF002801D0FDF75EFF06B010BD15
:102A1000A800002097BE05000E4810B50C490160C3
:102A20004FF4E1314160002181600C22C160C0E9B6
:102A300004128161C161FFF7EFFD08B1FDF744FFAA
:102A4000BDE81040012204490248FFF7C9BE00005A
:102A500000100140F010002042000020FEE7FEE7D9
:102A60007047000038B54C4C002004F11001D4ED43
:102A7000020A94ED030A0A185278012A76D0401C03
:102A8000C0B20428F7D300BFC4ED020A84ED030AE4
:102A9000E1880020491C00F0CFF9FDF7EBFFD4EDF1
:102AA000020A9FED3E1A0120B0EEE00AC0EE011AC4
:102AB000BDEEE10A10EE101A40FA81F194ED030A1E
:102AC00049B2F0EEC01A81EE812ABDEEC21A11EEB3
:102AD000102A40FA82F0F5EEC00A45B2F1EE10FA83
:102AE00001D2484241B2B5EEC00AF1EE10FA01D26D
:102AF000684245B2012000F09FF92946022000F00B
:102B00009BF927A000F0AEFBD4ED030A9FED270A46
:102B100030EE601ADFED260AC1EE201A9FED251A6D
:102B200061EE811AFCEEE11A11EE900AD4ED021A60
:102B300081B231EE800A1820B1FBF0F1C0EE201A0C
:102B400001EB4101CA000346009021EE810ABCEE70
:102B5000C00A10EE101A89B2B1FBF0F101EB41018D
:102B6000C90015A000F07EFB38BDFFE70A49E080F0
:102B7000183101EBC000B1EE040AD0ED000AB2EE4C
:102B8000081A60EE801AC1EE810AD0ED011A61EEDA
:102B9000801A81EE810A77E7000000200000484299
:102BA000706167652030FFFFFF00000000007A437E
:102BB0000000FA430000704366696C6C2025642CA9
:102BC00025642C25642C25642C524544FFFFFF000E
:102BD0007047FEF70BBA000030B593B0302168465D
:102BE000FDF728FB14210CA8FDF724FB1B4800254A
:102BF000016841F080510160006800F08050119040
:102C00001748016841F4804101600068022400F423
:102C10008040119001200090000401908001CDE9D6
:102C2000064008AA0420802182E813000B90684621
:102C3000FEF76EFC70B90CA90F2081E831004FF44B
:102C4000A0500F90E002109004210CA8FEF7EAFAC1
:102C5000002801D0FDF738FE13B030BD40380240E7
:102C6000007000400248016841F470010160704743
:102C700088ED00E00148FFF7B6BA0000A800002088
:102C8000F0B50268254C264D264E274F274B4FF0B6
:102C9000804CA04209D0604507D0A84205D0B04280
:102CA00003D0B84201D0984204D122F0700E4A6895
:102CB00042EA0E02A0421BD0604519D0A84217D0AC
:102CC000B04215D0B84213D0984211D0184DA84246
:102CD0000ED0184DA8420BD0174DA84208D0174D62
:102CE000A84205D0164DA84202D0164DA84203D1E5
:102CF00022F44075CA682A434D6922F080022A43B3
:102D000002608A68C2620A688262A04201D0984268
:102D100001D10969016301214161F0BD0000014059
:102D20000004004000080040000C00400004014086
:102D300000400140004401400048014000180040AC
:102D4000001C00400020004010B5846842EA0322C5
:102D500024F47F440A432243826010BD826822F03B
:102D600070020A4342F007018160704710B5036AA0
:102D7000046A24F001040462846924F0F00444EA43
:102D8000021423F00A020A438461026210BD10B5E6
:102D9000036A23F0100303628369046A23F4704317
:102DA00043EA023224F0A00343EA01118261016286
:102DB00010BD000038B5044607A00068009020460A
:102DC000FDF743FA00216A46535C2354401C491C1A
:102DD0000329F9DB38BD0000FFFFFF0001A000F070
:102DE00041BA000000FFFFFF00000000011E4FF08D
:102DF00000004FF00A0205DC07E000BF91FBF2F192
:102E0000401CC0B20029F9D1704701D101207047A0
:102E1000494203E091FBF2F1401CC0B20029F9D114
:102E2000401CC0B27047000001A000F01BBA0000B7
:102E300072657374FFFFFF00AFF300802DE9F0416E
:102E40000D460746FFF7D2FF04462846FFF7CEFFA0
:102E500020441030C4B2204600F038FF0646214618
:102E6000FDF7E8F92B463A4607A1304600F00AFA8A
:102E70003046FFF79FFFC1B2304600F0E1F930461F
:102E8000BDE8F04100F0D0BE6E25642E76616C3D49
:102E90002564000010B5806B0021C185C184FFF757
:102EA00081FA10BD01680C3151E8002F22F49072B4
:102EB00041E80023002BF5D10168143151E8002FBF
:102EC00022F0010241E80023002BF5D1016B01291A
:102ED00009D101680C3151E8002F22F0100241E8BD
:102EE0000023002BF5D1202180F83E100021016342
:102EF00070470000094900220A704A708A70CA703F
:102F000002780120882A05D0FD2A05D0FE2A00D1AA
:102F10004870704708707047887070473C00002008
:102F200008B590F83E10222901D0022008BD826821
:102F30004FF480539A4201D1016921B1816A9A42CA
:102F40001BD04AB10AE00268816A5268C2F30802E3
:102F50000A80816A891C08E0026972B102685268BD
:102F600002F07F020A70816A491C8162C18D491E8C
:102F70000904090CC18503D019E002685268F1E721
:102F80000168CA6822F02002CA600168CA6822F497
:102F90008072CA6001684A6922F001024A612021F8
:102FA00080F83E10016B012903D0FFF72FFC0020B1
:102FB00008BD0021016301680C3151E8002F22F0A7
:102FC000100241E80023002BF5D101680A68D206FF
:102FD00002D50A6849680091818DFFF7E2F9E6E7BA
:102FE00070B5044640685449884204D940F661618E
:102FF00052A000F0E7FDE06838B1B0F5005F04D002
:1030000040F662614DA000F0DDFD206950B1B0F5E1
:10301000806F07D0B0F5C06F04D040F6636147A061
:1030200000F0D0FD60694FF6F371084200D120B97D
:1030300040F6646141A000F0C5FD20680169E268C6
:1030400021F44051114301612169A068E2690843FC
:103050006169114322680843D16849F20C639943BE
:103060000143D16020684169A26921F44071114394
:10307000416141492068884202D04049884202D1DA
:10308000FEF706FA01E0FEF7F3F9E26900231921E1
:1030900064253226B2F5004F626828D0A0FB0101FA
:1030A000930F9200FDF78EF80146B0FBF5F06FF03C
:1030B0001802504301EB800006EB0010B0FBF5F066
:1030C00000F0F002B1FBF5F002EB0012B1FBF5F0FD
:1030D0006FF01803584301EB800006EB0010B0FBC3
:1030E000F5F000F00F0021681044886070BDA0FB6F
:1030F000010192185B41FDF765F80146B0FBF5F060
:103100000201B1FBF5F06FF01803584301EB8000AA
:1031100006EBC000B0FBF5F000F0F80002EB400257
:10312000B1FBF5F0584301EB800006EBC000B0FBAB
:10313000F5F000F00700D6E7A037A0002E2E2F44B0
:103140007269766572732F53544D333246347878F2
:103150005F48414C5F4472697665722F5372632FEA
:1031600073746D3332663478785F68616C5F756153
:1031700072742E6300000000001001400014014032
:1031800081628285C28500210164222280F83E206E
:1031900080F83C10016921B10168CA6842F480726C
:1031A000CA6001684A6942F001024A610068C16868
:1031B00041F02001C160002070472DE9F0419846A0
:1031C00017460E460446069D27E0681C25D02DB103
:1031D000FDF706FFA0EB0800A8421ED920680C30BE
:1031E00050E8001F21F4D07140E80012002AF5D108
:1031F0002068143050E8001F21F0010140E800125F
:10320000002AF5D1202084F83D0084F83E000020FB
:1032100084F83C000320BDE8F0812068006836EAAD
:10322000000004D00020B842CFD00020F3E70120F6
:10323000F9E700000148FFF7BBB80000F0100020DC
:103240000A4610B501464FF6FF730448FFF70EFB20
:103250000248FFF7A8F82128FAD010BDF01000208E
:10326000FEE700000FB4054B10B503A9044A02980D
:1032700000F0C6FB10BC5DF814FB0000153C000814
:10328000540000200FB4084B10B504A902AA0398FB
:1032900000F0B6FB044602A9002000F08DFC204699
:1032A00010BC5DF814FB0000B93B000803B40198A2
:1032B0004100009850EAC12018BF04204A0D18BFF1
:1032C00040F0010040F2FF72B2EB515F08BF40F0E6
:1032D0000200012808BF052002B0704700280DDB5E
:1032E00000F01F02012191404009800000F1E02020
:1032F000C0F88011BFF34F8FBFF36F8F7047002866
:1033000009DB00F01F02012191404009800000F11B
:10331000E020C0F800117047002809DB00F01F0210
:10332000012191404009800000F1E020C0F8001127
:1033300070470907090E002804DB00F1E02080F83F
:103340000014704700F00F0000F1E02080F8141D19
:10335000704700000000000070B52DED020B2DED50
:103360000A8B82B00D98C40F20F00045AE4885420C
:1033700048D3AE48854219D30C99C5F313000843CE
:1033800009D09DED0C0B02B0BDEC0A8B02B0BDE87C
:10339000704000F0DCBA002C14BF9FEDA50B9DED32
:1033A0000C0B02B0BDEC0A8B02B070BD9FEDA20BFE
:1033B00053EC102B9DED0C0B51EC100BFDF726FA86
:1033C0000AD2022000F016FB02B0BDEC0A8B02B05C
:1033D000BDE8704000F0C8BA9FED990B53EC102B7C
:1033E0009DED0C0B51EC100BFDF7F8F90AD2022001
:1033F00000F000FB02B0BDEC0A8B02B0BDE87040EB
:1034000000F0C2BA90489FED92BBA8425CD29248AD
:10341000854219D29148784400EBC40090ED000B2E
:1034200053EC102B9DED0C0B51EC100BFCF7B5FF82
:1034300041EC1A0B8A48784400EBC40090ED009BE5
:10344000C4F10100041B36E09FED870B53EC102BF9
:103450009DED0C0B51EC100BFDF7AFF841EC100B90
:103460008348784400EBC40090ED001B51EC100B36
:1034700053EC112BFCF7F0FEFDF791F90446FDF734
:103480007DF941EC180B9FED7C0B53EC102BFDF7F5
:1034900094F89DED0C1B53EC112BFCF781FF41ECD4
:1034A0001A0B9FED770B51EC180B53EC102BFDF71B
:1034B00084F841EC190B51EC1A0B53EC192BFCF767
:1034C0006CFFCDE90C011BE06F48854217D29FEDE0
:1034D000700B53EC102B9DED0C0B51EC100BFCF70B
:1034E000BBFE53EC1B2BFDF791F908D29DED0C0BA5
:1034F00053EC1B2B51EC100BFCF7AEFE6EE00024DE
:103500009DED0C0B53EC102B51EC100BFDF755F807
:1035100041EC180B60480521B0EE480AF0EE680A4D
:10352000784400F098F953EC182B51EC100BFDF790
:1035300044F89DED0C1B53EC112BFCF731FF41ECD3
:10354000180B9FED570B5CB353EC182B51EC100B81
:10355000FCF723FF9DED0C0B41EC1C0B53EC182BDF
:1035600051EC100BFDF729F853EC1C2BFDF797F8E5
:1035700053EC192BFCF714FF53EC1A2BFCF70DFF3F
:1035800053EC1B2BFCF70CFFCDE900016FF47F70AF
:10359000844226DB01EB045001909DED000B00E717
:1035A00053EC102B51EC180BFCF7F7FE9DED0C0BB8
:1035B00041EC190B53EC182B51EC100BFCF7FDFFF1
:1035C00053EC192BFDF76BF89DED0C1B53EC112BF5
:1035D000FCF7E3FE53EC1B2BFCF7E2FE41EC100B77
:1035E000DFE608464FF07A5101EB04519FED2E0BB8
:1035F000084453EC102B01909DED000B51EC100B87
:10360000FCF7DBFF0D4645EC100B044651EC100BAC
:10361000FFF74CFE042808BF00F0B6F945EC104B4C
:10362000BFE6000000000000422E86400000F07F50
:103630000000000000000000EF39FAFE422E864034
:1036400051302DD5104987C0422ED63F00000000D2
:10365000000000000000F03FB2A2F03F5609000059
:103660004609000000000000FE822B654715F73F69
:10367000FA080000000000000000E0FE422EE63FD5
:10368000763C7935EF39EA3D0000303E000000001D
:103690009C7500883CE4377E6C0800000000000048
:1036A0000000000000000040000000000000700169
:1036B00010EE100A10B50023A0F50001B1F1FE4F85
:1036C00067D200BF00F500216FF07E0202EBE15CE3
:1036D000C1F302524FF07E5101EB025100EE901AFD
:1036E000A0EBCC5003EB0C0100EE100A51EA0200F3
:1036F00036D030EE601A70EE200A9FED3D2A3E482B
:1037000081EE200A9FED3B1A60EE000A00EE821A5D
:1037100060EE201A61EE810A784401EE101A00EB87
:1037200082009FED362AB8EEC11AD0ED001A344857
:1037300041EE021A784401EE101A00EB8200B8EE56
:10374000C11A90ED002ADFED2F2A01EE222AB0EEF9
:10375000001A72EE200A40EE010A31EEA00A10BDF6
:10376000F7EE000A9FED291A30EE600ADFED260A17
:1037700000EE201ADFED260A60EE001A40EE010A84
:103780009FED241A00EE201A61EE810A30EE200A25
:1037900010BD4FF07F41B1EB400F03D2BDE81040A8
:1037A00000F00CB9B0F1FF4F08BF10BDB5EEC00A74
:1037B000F1EE10FA06D2012000F01CF9BDE810402D
:1037C00000F000B9B5EEC00AF1EE10FA07D1022000
:1037D00000F010F900F0E8F8B1EE400A10BDDFED9E
:1037E0000E0A6FF0160320EE200A10EE100A69E7A9
:1037F00066F1CC3EAAAA2A3F9C0600000070313F29
:10380000A0060000F4FD053821ED423E0A1180BEFD
:10381000C1ABAA3EFFFFFFBE0000004B10B52DED6F
:10382000028BB1EEC08A18EE100A20F00040C0F101
:10383000FF40C00F0AD010EE100A20F00040C0F187
:10384000FF40C00F04BF012000F0D4F8B0EE480ADA
:10385000BDEC028B10BD70B504462DED028B4D1EE4
:1038600000EBC500B0EE408AF0EE608A90ED000BF0
:1038700035F0060017D053EC182B51EC100BFCF769
:103880009CFE41EC100B6D1E04EBC50090ED001B7F
:1038900051EC100B53EC112BFCF7DEFC41EC100B40
:1038A00035F00600E7D1022D36D0042D1CD0062DB0
:1038B0001CBFBDEC028B70BD53EC182B51EC100BF0
:1038C000FCF77BFE94ED0A1B53EC112BFCF7C4FCB8
:1038D00053EC182BFCF771FE94ED081B53EC112BE5
:1038E000FCF7BAFC41EC100B53EC182B51EC100B0D
:1038F000FCF763FE94ED061B53EC112BFCF7ACFCBC
:1039000053EC182BFCF759FE94ED040B53EC102BE1
:10391000FCF7A2FC41EC100B53EC182B51EC100BF4
:10392000FCF74BFE94ED021B53EC112BFCF794FCBF
:1039300053EC182BFCF741FE94ED001B53EC112BBC
:10394000FCF78AFCBDEC028B41EC100B70BD10B58E
:1039500053EC102B51EC100BFCF77EFC41EC100BE0
:1039600010BD0000000000009FED050B10B553ECEA
:10397000102B51EC100BFCF720FE41EC100B10BD8E
:1039800000000000000000709FED050B10B553EC27
:10399000102B51EC100BFCF710FE41EC100B10BD7E
:1039A0000000000000000010DFED030AB7EE001A6F
:1039B00081EE200A704700000000000030EE000A8F
:1039C00070470000DFED020A80EEA00A7047000099
:1039D0000000000002E008C8121F08C1002AFAD146
:1039E00070477047002001E001C1121F002AFBD17F
:1039F0007047000001490860704700006000002027
:103A00002DE9FF4F8BB09A460F460546002606E08B
:103A100025280BD052460D9990476D1C761C2878AE
:103A20000028F5D10FB03046BDE8F08F0024A04645
:103A30000122604900E0044315F8013F203B02FAEF
:103A400003F00842F7D128782E2817D115F8010F76
:103A500044F004042A280ED06FF02F022878A0F139
:103A6000300109290AD808EB880102EB410100EB7B
:103A700001086D1CF2E757F8048B6D1C2878692843
:103A80003ED006DC0028CDD063280BD0642804D1BA
:103A900036E0732810D075284BD052460D999047C8
:103AA000761C85E017F8040B8DF8000000208DF8D7
:103AB0000100E946012003E057F8049B4FF0FF3076
:103AC00061074FF0000401D40AE0641C44450DDA9C
:103AD0008442FADB19F804100029F6D106E0641CD0
:103AE0008442FCDB19F804100029F8D1264404E0D4
:103AF00019F8010B52460D999047641EF8D257E011
:103B000001CF4FF00A0B002802DA40422D2102E0DB
:103B1000210504D52B218DF82410012103E0E107B4
:103B200005D02021F7E70DF1200908910CE00021D4
:103B3000F9E701CF4FF00A0BF9E75946FCF762FCB1
:103B400001F1300209F8012D0028F6D1ADEB090092
:103B500000F1200B600701D44FF00108D84502DDC9
:103B6000A8EB0B0000E000208046002406E009A836
:103B70005246005D0D999047641C761C089884425B
:103B8000F5DB04E0302052460D999047761CB8F1E1
:103B90000001A8F10108F5DC05E019F8010B524617
:103BA0000D999047761CBBF10001ABF1010BF4DCE1
:103BB0006D1C34E7092801000A68531C0B60107063
:103BC000704700000A46014601A0FFF74BBB00000A
:103BD00057726F6E6720706172616D657465727384
:103BE0002076616C75653A2066696C6520257320C6
:103BF0006F6E206C696E652025640D0A0000000060
:103C000030EE410A70EEE10A20EE000A00EEA00A52
:103C1000FFF704BE03490A685206FCD5C2B24A60E7
:103C2000704700000010014010B5002821D0114B52
:103C30000022001F196803E0814203D80A46496840
:103C40000029F9D152B11368841A9C4204D100684A
:103C500018441060104602E0506000E0186039B16E
:103C600002680B1A934203D10B681A440260496838
:103C7000416010BD58000020FDF7C0F9FEF7ACFF11
:103C8000FEF750FEFEF796FEFEF7C6FEFFF7A6F81B
:103C9000FFF7CAF89620FCF7A5FFFCF7E3FD0A4CF6
:103CA0004FF080564FF0E02560780428FCD1C5F82D
:103CB0008061BFF34F8FBFF36F8FFEF7D3FE1C20E1
:103CC000FFF71DFBF0E7000000000020F0B50B300F
:103CD000154D20F007010024144A0FE003688B42C1
:103CE0000BD38B4205D95E1A43184768C3E90067B6
:103CF00000E04368136002C004E0021D1068002861
:103D0000ECD12046002802D1286808B10020F0BD7F
:103D1000064A07481060074A121A22F00702C0E953
:103D2000002401202860D7E75C0000205800002014
:103D30003C1100203813002020EE000A00EEA00AFB
:103D4000FFF76CBD0000000000000000010203044A
:103D5000060708090000000001020304000000003B
:103D6000000000000000E03F000000000000E0BF95
:103D70000000E0FE422EE63F0000E0FE422EE6BFDD
:103D8000763C7935EF39EA3D763C7935EF39EABD55
:103D90003E5555555555C53F93BDBE166CC166BFC2
:103DA0002CDE25AF6A56113FF16BD2C541BDBBBEBB
:103DB000D0A4BE726937663E000000000030F13DBD
:103DC0000070643E0000A33E0090CF3E0090F83E9D
:103DD00000400F3F00E0203F0000000015B7833790
:103DE000CDE37B380EE1C53860F69138AF5F0F3810
:103DF000E1BC3E3823F44739183E0008000000209B
:103E000064000000D43900087C3E000864000020F3
:103E1000D4220000E4390008010032000F00000045
:103E20000000000000000000000000000000000092
:103E30000000964300009643000096C3000096439E
:103E4000000096C3000096C300009643000096C38E
:103E50000000000000000000000000000100000061
:103E600010000000000000000024F400000000002A
:0C3E700000000000000000000000000046
:040000050800018965
:00000001FF
