:020000040800F2
:10000000C8200020A10100081F210008E31F0008EC
:100010001D210008AD0200083D2600080000000078
:100020000000000000000000000000002321000884
:10003000AF0200080000000021210008252100086F
:10004000BB010008BB010008BB010008BB010008A0
:10005000BB010008BB010008B1020008B70200089C
:10006000BD020008C3020008BB010008BB01000874
:10007000BB010008BB010008BB010008BB01000870
:10008000BB010008BB010008BB010008BB01000860
:10009000BB010008BB010008BB010008BB01000850
:1000A000BB010008BB010008BB010008BB01000840
:1000B000CD210008BB010008BB010008BB010008FE
:1000C000BB010008BB010008BB010008BB01000820
:1000D000BB01000831260008BB010008BB01000875
:1000E000BB010008BB010008BB010008BB01000800
:1000F000BB010008BB010008BB010008BB010008F0
:10010000BB010008BB010008BB010008BB010008DF
:10011000BB010008BB010008BB010008BB010008CF
:10012000BB010008BB010008BB010008BB010008BF
:10013000BB010008BB010008BB010008BB010008AF
:10014000BB010008BB010008BB010008BB0100089F
:10015000BB010008BB010008BB010008BB0100088F
:10016000BB010008BB010008BB010008BB0100087F
:10017000BB010008BB010008BB0100080000000033
:10018000BB010008BB010008DFF810D000F07CF8CC
:1001900000480047BB260008AFF30080C8200020BD
:1001A0000648804706480047FEE7FEE7FEE7FEE711
:1001B000FEE7FEE7FEE7FEE7FEE7FEE7BD210008FB
:1001C000890100082DE9F05F0546002092469B4614
:1001D00088460646814640241BE02846414647465D
:1001E000224600F041F853465A46C01A914110D3B6
:1001F00011461846224600F028F82D1A67EB010830
:100200004F4622460120002100F01FF817EB00099D
:100210004E41201EA4F10104DFDC484631462A4647
:100220004346BDE8F09FD2B201E000F8012B491E21
:10023000FBD270470022F6E710B513460A46044683
:100240001946FFF7F0FF204610BD202A04DB203AB4
:1002500000FA02F1002070479140C2F1200320FA19
:1002600003F3194390407047202A04DB203A21FA17
:1002700002F00021704721FA02F3D040C2F12002BF
:100280009140084319467047064C074D06E0E06868
:1002900040F0010394E8070098471034AC42F6D3CD
:1002A000FFF776FFE826000808270008FEE77047FA
:1002B000012000F0C9B8022000F0C6B8042000F008
:1002C000C3B8082000F0C0B872B6FEE72DE9F041CF
:1002D0000446876D00F042FA064694F83500002582
:1002E000022806D08020606584F834500120BDE8E3
:1002F000F0812068016821F01601016020684169E1
:1003000021F080014161206C08B9A06C20B1206807
:10031000016821F0080101602068016821F00101F5
:1003200001600CE000F01AFA801B052807D9202094
:100330006065032084F8350084F83450D7E72068DE
:100340000068C007EED194F85C103F208840B86088
:10035000012084F8350084F834500020C7E790F875
:100360003510022903D08021416501207047052105
:1003700080F835100068016821F00101016000205B
:10038000704700002DE9F04129490B782B4D294990
:10039000294A2B4C2E6823B300237362022685F86A
:1003A0003D602E68F76847F00107F7602D682E68FA
:1003B00046F001062E600125012806D0022807D04C
:1003C000042808D008282DD108E04B60557017E0AC
:1003D0008B60957019E0CB60D5701BE00B611571D7
:1003E0001DE0736A174D01282B6006D0022809D042
:1003F00004280CD0082815D10EE04B6020785070EE
:1004000006200DE08B6020789070072008E0CB601C
:100410002078D070082003E00B612078107109204B
:1004200002F00DF92078401C2070BDE8F08100003A
:1004300000000020240000200200002038000020DE
:100440000100002008000020044910B50A6802429B
:1004500002D00860FFF796FF10BD0000143C014079
:100460002DE9F84FDFF888B20D46044658451BD0F9
:10047000A048844218D0A048844215D09F488442A6
:1004800012D09F4884420FD09E4884420CD09E4890
:10049000844209D09D48844206D09D48844203D0BE
:1004A000AC219CA002F008F928680104090C01D0D5
:1004B000000C03D0AD2197A002F0FEF86868F8B1F7
:1004C00001281DD011281BD0022819D0122817D0BE
:1004D000B0F5881F14D0B0F5041F11D0B0F5441F3B
:1004E0000ED0B0F5901F0BD0B0F5081F08D0B0F5B6
:1004F000481F05D0032803D0AE2186A002F0DCF807
:1005000000264FF0010A4FF0030900BF0AFA06F077
:100510002F688046074047457ED1287900F00300C8
:10052000012801D002281DD1E86848B1012807D070
:10053000022805D0032803D0C02176A002F0BCF821
:10054000A168720009FA02F08143E868904008430C
:10055000A0606068297920EA0800C1F30011B14069
:10056000014361602879C043800712D0A86838B180
:10057000012805D0022803D0D12166A002F09CF802
:10058000E168720009FA02F08143A86890400843CC
:10059000E060287900F0030002282ED12869F8B124
:1005A00009281DD001281BD0022819D0032817D0F4
:1005B000042815D0052813D0062811D007280FD0FD
:1005C00008280DD00A280BD00B2809D00C2807D0FA
:1005D0000D2805D00F2803D0DE214EA002F06CF8C4
:1005E000F00804EB8002106A7107CB0E0F219940CE
:1005F000884329699940014311622068720009FA11
:1006000002F18843297901F00301914001432160FF
:10061000686810F4403F00E063E062D04C48016835
:1006200041F480410160006826F0030100F480403D
:10063000009048480A18D2F80808B1070B0F0F219C
:10064000994088435C4501D1002123E029498C422F
:1006500001D101211EE028498C4201D1022119E07B
:1006600026498C4201D1032114E025498C4201D155
:1006700004210FE023498C4201D105210AE02249DF
:100680008C4201D1062105E020498C4201D107218D
:1006900000E0082199400143C2F808182E49086873
:1006A0006A68B843D20200D5384308602A49091D58
:1006B00008686A68B843920200D538430860264942
:1006C000091F08686A68B843920300D53843086078
:1006D0002149083908686A68B843D20300D538430D
:1006E0000860761C102EFFF411AFBDE8F88F0000F3
:1006F000000002400004024000080240000C0240DA
:10070000001002400014024000180240001C024089
:10071000002002402E2E2F447269766572732F538B
:10072000544D3332463478785F48414C5F447269A7
:100730007665722F5372632F73746D33326634781B
:10074000785F68616C5F6770696F2E6300000000FE
:100750004438024000300140083C014001488068B4
:10076000704700001400002002488168027811449C
:1007700081607047140000200B4810B5016841F4F7
:1007800000710160016841F480610160016841F419
:1007900080710160032000F0C3F80F2000F006F81C
:1007A00000F024F8002010BD003C024070B50D4D53
:1007B00004464FF47A712878B1FBF0F00A490968D1
:1007C000B1FBF0F000F0B6FC48B9102C07D20022C3
:1007D0002146501E00F054F800206C6070BD0120CE
:1007E00070BD000014000020200000200A4808B559
:1007F000016841F480410160006800F4804000908D
:100800000548001F016841F080510160006800F058
:100810008050009008BD00004438024010B504002C
:1008200003D5BC2107A001F047FF002C09DB04F031
:100830001F01012088406109890001F1E021C1F810
:10084000000110BD2E2E2F447269766572732F53EE
:10085000544D3332463478785F48414C5F44726976
:100860007665722F5372632F73746D3332663478EA
:10087000785F68616C5F636F727465782E630000E7
:1008800070B515460C460646102A03D3A82114A0BD
:1008900001F012FF102C03D3A92111A001F00CFFCD
:1008A0001E480068C0F30223C3F107022046042A51
:1008B00000D90422191D072901D2002300E0DB1E04
:1008C000012404FA02F1491E014099409C40641E33
:1008D0002C4021433046BDE8704001F0CEBE000000
:1008E0002E2E2F447269766572732F53544D333216
:1008F000463478785F48414C5F4472697665722F60
:100900005372632F73746D3332663478785F686125
:100910006C5F636F727465782E6300000CED00E00D
:1009200010B5044607280BD0062C09D0052C07D09B
:10093000042C05D0032C03D0902108A001F0BCFEAC
:10094000154904F0070208684FF6FF03184040EA13
:100950000220124A1043086010BD00002E2E2F44C2
:100960007269766572732F53544D333246347878FA
:100970005F48414C5F4472697665722F5372632FF2
:1009800073746D3332663478785F68616C5F636F5F
:10099000727465782E6300000CED00E00000FA052B
:1009A0002DE9F0470E4604007DD02068401E0E2839
:1009B00004D940F25A217AA001F07EFE96B1012EB0
:1009C00010D0022E0ED0032E0CD0042E0AD0052EED
:1009D00008D0062E06D0072E04D040F25B2170A06E
:1009E00001F06AFEDFF8F081D8F80000F7B200F0FD
:1009F0000700B04207D288F80070D8F8000000F075
:100A00000700B0424FD12068744D810729D54007B7
:100A100003D5286840F4E05028602078000703D50B
:100A2000286840F460402860A068A0B1802812D0F7
:100A3000902810D0A0280ED0B0280CD0C0280AD002
:100A4000D02808D0E02806D0F02804D040F27E213B
:100A500053A001F031FE2868A16820F0F00008439F
:100A600028602078C00743D0DFF870916068A9F152
:100A7000080988B1012822D0022824D0032822D0D6
:100A800040F2852146A001F017FE6068012816D0CB
:100A9000022818D0032816D0D9F8000080070028B3
:100AA00033DA286800E030E0616820F00300084392
:100AB0002860FFF753FE814641F2883A11E0D9F8E9
:100AC00000008003EBE7D9F800008001E7E700BFF2
:100AD000FFF744FEA0EB0901514502D90320BDE810
:100AE000F0872868616800F00C00B0EB810FEFD14F
:100AF000D8F80010404601F00701B14207D907704D
:100B0000006800F00700B04201D00120E7E720783C
:100B10004FF4805640074FF4A0574FF4C0584FF49D
:100B2000E05914D5E06860B1B0420AD0B84208D0AC
:100B3000404506D0484504D040F2C32118A001F03A
:100B4000BBFD2868E16820F4E05008432860207865
:100B5000000715D5206960B1B0420AD0B84208D06C
:100B6000404506D0484504D040F2CA210CA001F00F
:100B7000A3FD2868216920F4604040EAC100286094
:100B800000F054F82968164AC1F30311515CC840BB
:100B90001449086014480068FFF708FE00209EE72B
:100BA0002E2E2F447269766572732F53544D333253
:100BB000463478785F48414C5F4472697665722F9D
:100BC0005372632F73746D3332663478785F686163
:100BD0006C5F7263632E6300003C02400838024081
:100BE000D0260008200000201800002004480549F5
:100BF00000680968044AC1F38221515CC84070470B
:100C00002000002008380240E0260008044805497A
:100C100000680968044AC1F34231515CC84070471A
:100C20002000002008380240E0260008154810B5D2
:100C3000006810F00C02144813D04110042A0FD0A1
:100C4000082A0ED10F4C241F2268236802F03F02AD
:100C50005B0207D52068C0F38810A0FB010106E005
:100C6000084610BD2168C1F38811A1FB00010023D3
:100C7000FFF7A8FA2168C1F30141491C4900B0FB04
:100C8000F1F010BD083802400024F4002DE9F84FBF
:100C900004007DD020680F2803D9E621F7A001F0D9
:100CA0000BFD2078DFF80C94C007A9F1040555D09E
:100CB00060684FF480364FF4A02738B1B04205D0B9
:100CC000B84203D0EB21EDA001F0F6FCF948001D7D
:100CD0000168C1F38101012908D00068C0F38100D7
:100CE00002280AD1D9F80000400206D528688003FE
:100CF00034D560680028CCD030E06068B04203D1C1
:100D0000286840F480300CE0B842286803D140F4F1
:100D100080202860F4E720F480302860286820F4E0
:100D200080202860606860B1FFF718FD064604E087
:100D3000FFF714FD801B64287ED828688003F7D550
:100D40000CE0FFF70BFD064605E000BFFFF706FDD0
:100D5000801B6428F0D828688003F7D42078DFF857
:100D6000588380074FF0000A56D5E06830B101285B
:100D700004D040F21D11C1A001F09EFC20691F2883
:100D800004D94FF48F71BDA001F096FCC94800E072
:100D900092E0001D016811F00C0F08D00068C0F34C
:100DA0008100022810D1D9F8000040020CD4286834
:100DB000800702D5E06801287ED12868216920F0EB
:100DC000F80040EAC10017E0E068B8B10120C8F8B7
:100DD0000000FFF7C3FC064605E000BFFFF7BEFCBE
:100DE000801B0228A8D828688007F7D5286820F03B
:100DF000F801206941EAC00028600DE0C8F800A0B1
:100E0000FFF7ACFC064604E0FFF7A8FC801B0228B5
:100E100092D828688007F7D4207800072ED5A54EF1
:100E2000A64F60697036D0B1012808D04FF4AF7179
:100E300092A001F041FC00E04BE1606978B1012033
:100E40003860FFF78BFC074605E000BFFFF786FC24
:100E5000C01B0228C6D830688007F7D50EE0C7F857
:100E600000A0FFF77BFC074605E000BFFFF776FC1C
:100E7000C01B0228B6D830688007F7D42078400716
:100E800076D5A068002740B1012806D0052804D0F7
:100E90004FF4C57179A001F00FFCDFF818B20BF127
:100EA0003C0BDBF80000C0000DD4DBF8001041F073
:100EB0008051CBF8001000E038E1DBF8000001279A
:100EC00000F0805000907E4E3068C00511D430682C
:100ED00040F480703060FFF741FC009006E000BFF6
:100EE000FFF73CFC0099401A022891D83068C005F1
:100EF000F6D5704EA0686C3601280FD005283068F2
:100F000010D020F001003060306820F00400306024
:100F1000A068B8B1FFF722FC00900FE0306840F005
:100F20000100F4E740F004003060F7E7FFF716FC3B
:100F30000099411A41F2883081428BD8306880078D
:100F4000F4D50EE0FFF70AFC009007E0FFF706FC7F
:100F50000099411A41F2883081428BD8306880076D
:100F6000F4D42FB1DBF8001021F08051CBF8001041
:100F7000A069002876D0012809D0022807D040F2C5
:100F8000CD113EA001F098FBA0690028F2D049489D
:100F9000001D0068C0F381000228A0696DD00228FE
:100FA00005D0C8F860A0FFF7D9FB044694E0E069DB
:100FB00038B1B0F5800F04D04FF4EB712FA001F0E1
:100FC0007BFB206A3F2804D940F2D7112BA001F007
:100FD00073FB606A3238B0F5BF7F04D94FF4EC710F
:100FE00026A001F069FBA06A02280AD0042808D0D4
:100FF000062806D0082804D040F2D9111FA001F01D
:101000005BFBE06A801E0D2804D94FF4ED711BA034
:1010100001F052FB4746C8F860A0FFF79FFB064669
:1010200005E000BFFFF79AFB801B022851D8286813
:101030008001F7D4D4E907010843A16A214A49088D
:1010400002EB0141626A41EA8211084394F82C10D4
:1010500040EA0161C9F8001001203866FFF77EFB05
:10106000044606E064E000BFFFF778FB001B02289F
:101070002FD828688001F7D55AE031E02E2E2F4472
:101080007269766572732F53544D333246347878D3
:101090005F48414C5F4472697665722F5372632FCB
:1010A00073746D3332663478785F68616C5F726335
:1010B000632E63000438024000004742800E47421E
:1010C000007000400000FFFFFFF748FB001B0228F4
:1010D00002D90320BDE8F88F28688001F4D427E006
:1010E0000128F7D0D9F80000E26900F480019142AC
:1010F0001CD1226A00F03F01914217D147F6C0711E
:10110000626A0140B1EB821F10D1A26A4FF0FF3337
:1011100000F4403103EB5202B1EB024F06D194F8D8
:101120002C1000F07060B0EB016F01D00120D1E70E
:101130000020CFE710B5401EB0F1807F01D3012021
:1011400010BD4FF0E02460610F21601701F095FAA7
:101150000020A06107202061002010BD704770476B
:101160002DE9F05F044600683A4E3B4FDFF8EC8013
:10117000DFF8EC90DFF8ECA00D464FF0804BB0426A
:1011800015D0584513D0B84211D040450FD048452E
:101190000DD04FEAB641884209D03349884206D083
:1011A000504504D040F2B17130A001F085FA2868B2
:1011B00090B1102810D020280ED030280CD0402814
:1011C0000AD0502808D0602806D0702804D040F2F9
:1011D000B27126A001F070FA6868802805D020B1AD
:1011E00040F2B37121A001F067FA94F83C000128A5
:1011F0002DD0012284F83C20022084F83D00216893
:1012000048688B6820F0700C286840EA0C00486041
:101210002068B0420FD058450DD0B8420BD04045A1
:1012200009D0484507D0504505D01F49884202D013
:101230001E49884204D1696823F080031943816004
:1012400084F83D20002084F83C00BDE8F09F022097
:10125000FBE70000000001400004004000080040DF
:10126000000C004000040140001400402E2E2F44CA
:101270007269766572732F53544D333246347878E1
:101280005F48414C5F4472697665722F5372632FD9
:1012900073746D3332663478785F68616C5F74693B
:1012A0006D5F65782E63000000400140001800402B
:1012B00010B5040058D03F49206888422BD0B0F1C7
:1012C000804F28D03C49884225D03C49884222D0D2
:1012D0003B4988421FD03B4988421CD03A4988424A
:1012E00019D03A49884216D03949884213D0394931
:1012F000884210D0384988420DD0384988420AD0F7
:101300003749884207D03749884204D040F2131148
:1013100035A001F0D1F9A06860B110280AD02028CA
:1013200008D0402806D0602804D04FF48A712EA03F
:1013300001F0C2F9206950B1B0F5807F07D0B0F557
:10134000007F04D040F2151127A001F0B5F9A06983
:1013500030B1802804D04FF48B7123A001F0ACF998
:1013600094F83D0010B107E0012010BD002084F882
:101370003C00204600F054F8022084F83D00211D76
:10138000206800F029FF012084F8460084F83E0020
:1013900084F83F0084F8400084F8410084F842005B
:1013A00084F8430084F8440084F8450084F83D0044
:1013B000002010BD00000140000400400008004073
:1013C000000C0040001000400014004000040140E8
:1013D0000040014000440140004801400018004026
:1013E000001C0040002000402E2E2F4472697665BC
:1013F00072732F53544D3332463478785F48414CE2
:101400005F4472697665722F5372632F73746D3304
:1014100032663478785F68616C5F74696D2E630042
:1014200008B50068B0F1804F12D10A48016841F058
:10143000010101600068002200F0010000901146E7
:101440001C20FFF71DFABDE808401C20FFF7E6B995
:1014500008BD00004038024010B50446016821482C
:1014600081422BD0B1F1804F28D01F48814225D036
:101470001E48814222D01E4881421FD01D48814211
:101480001CD01D48814219D01C48814216D01C48EE
:10149000814213D01B48814210D01B4881420DD09D
:1014A0001A4881420AD01A48814207D0194881421D
:1014B00004D040F2B91118A001F0FEF82068016ACA
:1014C00041F21112114207D1016A9210114203D167
:1014D000016821F001010160012084F83D00002035
:1014E00010BD000000000140000400400008004062
:1014F000000C0040001000400014004000040140B7
:1015000000400140004401400048014000180040F4
:10151000001C0040002000402E2E2F44726976658A
:1015200072732F53544D3332463478785F48414CB0
:101530005F4472697665722F5372632F73746D33D3
:1015400032663478785F68616C5F74696D2E630011
:101550002DE9F84F05460020009095F83C000C4618
:10156000012841D0012085F83C00022085F83D008B
:1015700020684FF4805B584516D0702814D0B0F521
:10158000005F11D040280FD050280DD060280BD01C
:1015900050B1102808D0202806D0302804D041F2BD
:1015A000B741D4A001F088F82868816821F077015C
:1015B00021F47F4181602068DC49DD4ADD4BDE4E4D
:1015C000DE4FDFF87CC3DFF87C834FF080494FF4B7
:1015D000004A50287ED00FDC202804D007DC0028E9
:1015E000FBD0102877D161E10220BDE8F88F3028C8
:1015F000F9D04028F6D126E160286DD0702874D04B
:10160000584544D04FF400584045EBD128688842F3
:101610000ED048450CD090420AD0984208D0B04233
:1016200006D0B84204D041F2E241B2A001F044F841
:10163000A06858B1584509D0404507D0B0F5405F83
:1016400004D041F2E541ABA001F036F860685045A6
:1016500009D040B1022806D00A2804D041F2E64160
:10166000A4A001F029F8E0680F2804D941F2E7416D
:10167000A0A001F021F8D4E90121E368286800F076
:101680000FFE2868816841F48041816029E1286863
:101690008842FBD04845F9D09042F7D09842F5D027
:1016A000B042F3D0A8498842F0D0A8498842EDD092
:1016B000B842EBD06045E9D0A5498842E6D0A549BB
:1016C0008842E3D04045E1D0A3498842DED0A34917
:1016D000884203E04FE002E180E006E0D6D041F22C
:1016E000C34184A000F0E8FFFBE02868884212D0E4
:1016F000484510D090420ED098420CD0B0420AD04B
:10170000B84208D0604506D0404504D041F2CA41F5
:1017100078A000F0D1FFA06860B158450AD0B0F5BC
:10172000005F07D0B0F5405F04D041F2CD4171A019
:1017300000F0C2FF6068504509D040B1022806D0D1
:101740000A2804D041F2CE416AA000F0B5FFE0685B
:101750000F2804D941F2CF4166A000F0ADFFD4E9D3
:101760000121E368286800F09BFD2968886840F043
:1017700077008860B5E02868884212D0484510D0CC
:1017800090420ED098420CD0B0420AD0B84208D055
:10179000604506D0404504D041F2F64155A000F026
:1017A0008BFF6068504509D040B1022806D00A2856
:1017B00004D041F2F9414FA000F07EFFE0680F280D
:1017C00004D941F2FA414BA000F076FFE26861686B
:1017D000286800F077FD5021286831E028688842A9
:1017E00012D0484510D090420ED098420CD0B04252
:1017F0000AD0B84208D0604506D0404504D041F236
:1018000006513CA000F058FF6068504509D040B137
:10181000022806D00A2804D041F2095135A000F070
:101820004BFFE0680F2804D941F20A5131A000F0C3
:1018300043FFE2686168286800F055FD6021286870
:1018400000F038FD4DE02868884212D0484510D09D
:1018500090420ED098420CD0B0420AD0B84208D084
:10186000604506D0404504D041F2165121A000F059
:1018700023FF6068504509D040B1022806D00A28ED
:1018800004D041F219511BA000F016FFE0680F28A8
:1018900004D941F21A5117A000F00EFFE268616806
:1018A000286800F00FFD40212868C9E728688842B1
:1018B00012D0484510D090420ED098420CD0B04281
:1018C0000AD0B84208D0604506D0404504D041F265
:1018D000295108A000F0F0FE21682868B0E7012037
:1018E0000090012085F83D00002085F83C0000981C
:1018F0007BE600002E2E2F447269766572732F539B
:10190000544D3332463478785F48414C5F447269B5
:101910007665722F5372632F73746D333266347829
:10192000785F68616C5F74696D2E63000000014030
:101930000004004000080040000C0040000401408A
:10194000004001400018004000100040001400401A
:101950000044014000480140001C004000200040BD
:10196000704770B50446006801694FF00005C9432F
:10197000890715D4C168C943890711D4E91E0161DB
:1019800001202077206880698007204602D0FFF779
:10199000E7FF04E000F098F8204600F096F825777D
:1019A00020680169C943490717D4C168C943490779
:1019B00013D46FF004010161022020772068806950
:1019C00010F4407F204602D0FFF7CAFF04E000F089
:1019D0007BF8204600F079F8257720680169C94333
:1019E000090716D4C168C943090712D46FF008016A
:1019F0000161042020772068C0698007204602D05A
:101A0000FFF7AEFF04E000F05FF8204600F05DF85D
:101A1000257720680169C943C90617D4C168C9433D
:101A2000C90613D46FF010010161082020772068E7
:101A3000C06910F4407F204602D0FFF791FF04E018
:101A400000F042F8204600F040F825772068016950
:101A5000C943C90708D1C168C943C90704D1891E50
:101A60000161204600F032F820680169C943090687
:101A700009D4C168C943090605D46FF0800101612A
:101A80002046FFF76BFB20680169C943490609D46A
:101A9000C168C943490605D46FF040010161204681
:101AA00000F03CF820680169C94389060BD4C1687D
:101AB000C943890607D46FF0200101612046BDE8C3
:101AC0007040FFF74CBB70BD7047704710B50E48B3
:101AD000FFF7C2FC062000F0C3FD072000F0C0FDA8
:101AE000082000F0BDFD092000F0BAFD14210748D0
:101AF000FEF7A0FB06490020086008710549087040
:101B000005490120087010BD380000202400002085
:101B100002000020010000200000002070477047F4
:101B200070470000F8B5016804460868CA684B6948
:101B300010F00F0F4FF0000559D003F0010602F42A
:101B40009077374365D0C10705D0D10503D5216C07
:101B500041F001012164410705D5D90703D0216C6B
:101B600041F002012164810705D5D90703D0216C1A
:101B700041F004012164010707D502F0200131433F
:101B800003D0216C41F008012164216C00293AD076
:101B9000800604D5900602D5204600F0FBFB2068A5
:101BA0004069216CC0F38010090700D460B320465F
:101BB00000F0B3FB20684069400621D5206814304E
:101BC00050E8001F21F0400140E80012002AF5D142
:101BD000A06BA8B16C490165A06BFEF7C0FB0028A3
:101BE00011D0A06B016D01B0BDE8F040084783063D
:101BF0000FD593060DD52046BDE8F84000F0CABBCE
:101C00002046FFF78DFFF8BD2046FFF789FF2564CA
:101C1000F8BD266B2023012E79D1C60677D5D606CE
:101C200075D50868486800904869400640D5A16BA2
:101C3000086840680004000CEAD0A28D8242E7D90F
:101C4000E085C869B0F5807F2DD020680C3050E861
:101C5000001F21F4807140E80012002AF5D12068AD
:101C6000143050E8001F21F0010140E80012002A62
:101C7000F5D12068143050E8001F21F0400140E801
:101C80000012002AF5D184F83E30256320680C301C
:101C900050E8001F21F0100140E80012002AF5D1A1
:101CA000A06BFEF713FBA08DE18D401A81B229E0F5
:101CB000A08DE18D401A81B2E08D0028A8D00029C6
:101CC000A6D020680C3050E8002F22F4907240E833
:101CD0000026002EF5D12068143050E8002F22F0A5
:101CE000010240E80026002EF5D184F83E3025633D
:101CF00020680C3050E8002F22F0100240E800234A
:101D0000002BF5D12046FFF70AFFF8BDFFE70506D7
:101D10002BD5150629D594F83D002128F5D1A068CA
:101D2000B0F5805F01D12069B0B1206A411C216209
:101D3000216800784860E08C401E0004000CE084BC
:101D4000E3D12068C16821F08001C1602068C168CA
:101D500041F04001C160D8E7206A0088C0F3080064
:101D60004860206A801C2062E5E74006CDD5500619
:101D7000CBD5CA68204622F04002CA6084F83D30C4
:101D800000F02EF9C1E700000B23000870B5040035
:101D900023D0A0693B4900283B4A3C4B3C4D20687E
:101DA0001DD088420CD090420AD0984208D0A84258
:101DB00006D040F2731137A000F07EFCA06908B392
:101DC000A069B0F5807F1DD0B0F5007F1AD0B0F5C6
:101DD000407F17D04FF4BA7111E0012070BD8842E6
:101DE00010D090420ED098420CD03949884209D088
:101DF0003849884206D0A84204D04FF4BC7125A0CF
:101E000000F05AFCA06838B1B0F5805F04D04FF400
:101E1000BD7120A000F050FCE06938B1B0F5004F72
:101E200004D040F27B111BA000F046FC94F83D006A
:101E3000002520B984F83C50204600F04DF82420BD
:101E400084F83D002068C16821F40051C16020463B
:101E500000F000FB2068016921F4904101612068D5
:101E6000416921F02A0141612068C16841F40051B3
:101E7000C1602564202084F83D0084F83E000020E5
:101E800070BD0000001001400044004000480040C8
:101E9000001401402E2E2F447269766572732F5301
:101EA000544D3332463478785F48414C5F44726910
:101EB0007665722F5372632F73746D333266347884
:101EC000785F68616C5F756172742E63000000005A
:101ED000004C00400050004010B586B0044614216C
:101EE0006846FEF7A7F918492068884229D11748A3
:101EF0000021026842F010020260006800F0100049
:101F0000059012481438026842F00102026000682D
:101F100000F0010005904FF4C06000900220CDE970
:101F20000101032003900720049069460848FEF74A
:101F300097FA002211462520FEF7A2FC2520FEF785
:101F40006DFC06B010BD0000001001404438024096
:101F50000000024090F83E30202B0ED159B152B112
:101F600090F83C30012B08D0012380F83C3000234E
:101F7000036300F03FBB0120704702207047000060
:101F8000144B10B5144A187999791154401CC1B2F8
:101F90001971032916D9501810F8032CFF2A11D1F2
:101FA00010F8022CFF2A0DD110F8010CFF2809D1DE
:101FB000094800F0D9F9002018714FF40061064873
:101FC000FEF738F903490122BDE81040891D034896
:101FD000FFF7C0BF0C000020800000208010002010
:101FE0007047FEE700B587B014216846FEF722F976
:101FF0001E480021026842F080020260026802F07E
:1020000080020592026842F001020260006800F05E
:10201000010005900F2000904FF48810CDE90101D8
:1020200069461348FEF71CFA002211460620FEF707
:1020300027FC0620FEF7F2FB002211460720FEF7E0
:102040001FFC0720FEF7EAFB002211460820FEF7DE
:1020500017FC0820FEF7E2FB002211460920FEF7DC
:102060000FFC0920FEF7DAFB07B000BD3038024054
:102070000000024010B586B0002415480094019479
:102080000294039404944FF080410594C0E9001435
:102090001049C0E9024104618461FFF709F908B100
:1020A000FEF712F94FF48050009069460848FFF798
:1020B0004FFA08B1FEF708F9049404A904480594FE
:1020C000FFF74EF8002801D0FEF7FEF806B010BD6D
:1020D0003800002097BE05000E4810B50C4901607D
:1020E0004FF4E1314160002181600C22C160C0E900
:1020F00004128161C161FFF749FE08B1FEF7E4F8FF
:10210000BDE81040012204490248FFF723BF000048
:10211000001001408010002012000020FEE7FEE7C2
:1021200070477047FEF720BB30B593B0302168464A
:10213000FEF780F814210CA8FEF77CF81D48002556
:10214000016841F080510160006800F080501190FA
:102150001948016841F4804101600068022400F4DC
:102160008040119001200090000401908001CDE991
:10217000064008AA0420802182E813000B906846DC
:10218000FEF784FD08B172B6FEE70CA90F2081E8C6
:1021900031004FF4A0500F904FF480501090042164
:1021A0000CA8FEF7FDFB002801D072B6FEE713B0C5
:1021B00030BD000040380240007000400248016815
:1021C00041F470010160704788ED00E00148FFF7BD
:1021D000C8BB000038000020F0B50268254C264D31
:1021E000264E274F274B4FF0804CA04209D0604528
:1021F00007D0A84205D0B04203D0B84201D09842DF
:1022000004D122F0700E4A6842EA0E02A0421BD0AE
:10221000604519D0A84217D0B04215D0B84213D0AB
:10222000984211D0184DA8420ED0184DA8420BD09C
:10223000174DA84208D0174DA84205D0164DA84208
:1022400002D0164DA84203D122F44075CA682A4331
:102250004D6922F080022A4302608A68C2620A68DD
:102260008262A04201D0984201D109690163012133
:102270004161F0BD00000140000400400008004042
:10228000000C0040000401400040014000440140B7
:102290000048014000180040001C004000200040A1
:1022A00010B5846842EA032224F47F440A4322439F
:1022B000826010BD826822F070020A4342F007017A
:1022C0008160704710B5036A046A24F00104046257
:1022D000846924F0F00444EA021423F00A020A4359
:1022E0008461026210BD10B5036A23F0100303621B
:1022F0008369046A23F4704343EA023224F0A003A2
:1023000043EA01118261016210BD10B5806B0021AA
:10231000C185C184FFF704FC10BD01680C3151E890
:10232000002F22F4907241E80023002BF5D10168C0
:10233000143151E8002F22F0010241E80023002B64
:10234000F5D1016B012909D101680C3151E8002F49
:1023500022F0100241E80023002BF5D1202180F863
:102360003E10002101637047094900220A704A703B
:102370008A70CA7002780120882A05D0FD2A05D00B
:10238000FE2A00D148707047087070478870704707
:102390000C00002008B590F83E10222901D0022040
:1023A00008BD82684FF480539A4201D1016921B17E
:1023B000816A9A421BD04AB10AE00268816A526877
:1023C000C2F308020A80816A891C08E0026972B1BE
:1023D0000268526802F07F020A70816A491C8162B9
:1023E000C18D491E0904090CC18503D019E002689A
:1023F0005268F1E70168CA6822F02002CA600168E9
:10240000CA6822F48072CA6001684A6922F0010237
:102410004A61202180F83E10016B012903D0FFF7AB
:10242000AFFD002008BD0021016301680C3151E8B7
:10243000002F22F0100241E80023002BF5D10168A3
:102440000A68D20602D50A6849680091818DFFF7B3
:1024500066FBE6E770B5044640685449884204D9F3
:1024600040F6616152A000F027F9E06838B1B0F59C
:10247000005F04D040F662614DA000F01DF92069B4
:1024800050B1B0F5806F07D0B0F5C06F04D040F602
:10249000636147A000F010F960694FF6F3710842DC
:1024A00000D120B940F6646141A000F005F9206830
:1024B0000169E26821F44051114301612169A0687A
:1024C000E26908436169114322680843D16849F20F
:1024D0000C6399430143D16020684169A26921F4EA
:1024E00040711143416141492068884202D040490E
:1024F000884202D1FEF78AFB01E0FEF777FBE26932
:102500000023192164253226B2F5004F626828D0D5
:10251000A0FB0101930F9200FDF754FE0146B0FBB2
:10252000F5F06FF01802504301EB800006EB00104D
:10253000B0FBF5F000F0F002B1FBF5F002EB001299
:10254000B1FBF5F06FF01803584301EB800006EB88
:102550000010B0FBF5F000F00F0021681044886017
:1025600070BDA0FB010192185B41FDF72BFE0146F7
:10257000B0FBF5F00201B1FBF5F06FF01803584322
:1025800001EB800006EBC000B0FBF5F000F0F800B6
:1025900002EB4002B1FBF5F0584301EB800006EB83
:1025A000C000B0FBF5F000F00700D6E7A037A000B0
:1025B0002E2E2F447269766572732F53544D333229
:1025C000463478785F48414C5F4472697665722F73
:1025D0005372632F73746D3332663478785F686139
:1025E0006C5F756172742E63000000000010014082
:1025F0000014014081628285C2850021016422228B
:1026000080F83E2080F83C10016921B10168CA6859
:1026100042F48072CA6001684A6942F001024A616C
:102620000068C16841F02001C160002070470000CF
:102630000148FFF777BA000080100020FEE700286D
:102640000DDB00F01F02012191404009800000F1E4
:10265000E020C0F88011BFF34F8FBFF36F8F70473A
:10266000002809DB00F01F02012191404009800091
:1026700000F1E020C0F8001170470907090E00289A
:1026800004DB00F1E02080F80014704700F00F0038
:1026900000F1E02080F8141D704702E008C8121F06
:1026A00008C1002AFAD170477047002001E001C13B
:1026B000121F002AFBD170477047FEF75DF8FFF745
:1026C00033FDFFF78FFCFFF7D5FCFFF705FDFEE7B5
:1026D00000000000000000000102030406070809D2
:1026E0000000000001020304082700080000002089
:1026F000240000009A2600082C270008240000204F
:10270000A4200000AA26000801000000000000002C
:1027100000000000000000000000000001000000B8
:0C27200010000000000000000024F40085
:040000050800018965
:00000001FF
