:020000040800F2
:10000000501D0020A10100081F3E0008853B00088C
:100010001D3E0008E1050008654B000800000000D7
:100020000000000000000000000000000140000887
:10003000F106000800000000213E0008034000080F
:10004000BB010008BB010008BB010008BB010008A0
:10005000BB010008BB010008F3060008F906000810
:10006000FF06000805070008BB010008BB010008E7
:10007000BB010008BB010008BB010008BB01000870
:10008000BB010008BB010008BB010008BB01000860
:10009000BB010008BB010008BB010008BB01000850
:1000A000BB010008BB010008BB010008BB01000840
:1000B000BB010008BB010008BB010008BB01000830
:1000C000BB010008BB010008BB010008BB01000820
:1000D000BB010008394B0008BB010008BB01000848
:1000E000BB010008BB010008BB010008BB01000800
:1000F000BB010008BB010008BB010008BB010008F0
:10010000BB010008BB010008A5400008BB010008B6
:10011000BB010008BB010008BB010008BB010008CF
:1001200041060008BB010008BB010008BB01000834
:10013000BB010008BB010008BB010008BB010008AF
:10014000BB010008BB010008BB010008BB0100089F
:10015000BB010008BB010008BB010008BB0100088F
:10016000BB010008BB010008BB010008BB0100087F
:10017000BB010008BB010008BB0100080000000033
:10018000BB010008BB010008DFF810D000F09AF8AE
:1001900000480047F9520008AFF30080501D0020CE
:1001A0000648804706480047FEE7FEE7FEE7FEE711
:1001B000FEE7FEE7FEE7FEE7FEE7FEE79540000804
:1001C000890100082DE9F05F0546002092469B4614
:1001D00088460646814640241BE02846414647465D
:1001E000224600F05EF853465A46C01A914110D399
:1001F00011461846224600F045F82D1A67EB010813
:100200004F4622460120002100F03CF817EB000980
:100210004E41201EA4F10104DFDC484631462A4647
:100220004346BDE8F09FD2B201E000F8012B491E21
:10023000FBD270470022F6E710B513460A46044683
:100240001946FFF7F0FF204610BD421C10F8011BB5
:100250000029FBD1801A704730B50B4601460020BB
:100260002022012409E021FA02F59D4205D303FA78
:1002700002F5491B04FA02F52844151EA2F10102F9
:10028000F1DC30BD202A04DB203A00FA02F1002024
:1002900070479140C2F1200320FA03F319439040C4
:1002A0007047202A04DB203A21FA02F0002170472F
:1002B00021FA02F3D040C2F12002914008431946CE
:1002C00070470000064C074D06E0E06840F001036F
:1002D00094E8070098471034AC42F6D3FFF758FF74
:1002E000085700082857000810B50146806B026CBB
:1002F00012F0500F05D0026CD20626D500F01BFC80
:1003000010BD016C41F40071016401688A6812F04B
:10031000405F17D1027EAAB9CA6A12F4700F02D0E8
:100320008A6852050ED44A6822F020024A60016CA5
:1003300021F480710164016CC90403D4016C41F0A3
:100340000101016400F0E8FB10BD806BC26CBDE8E8
:1003500010400846104710B5806B40210164416C85
:1003600041F00401416400F0E6FB10BD10B5806B64
:1003700000F0E0FB10BD000010B504F05DF90421B1
:10038000044802F05FFF044801780029FCD00021F6
:10039000017010BD780900200000002030B50188F0
:1003A00000240A464FF4806530F814308B4201D99E
:1003B000194602E0934200D21A46641CAC42F3DBB9
:1003C000881A00EE100ADFED050AB8EEC00A20EE2A
:1003D000200ADFED030A20EE200A30BD000080393C
:1003E000333353402DE9F04104462DED028B80005C
:1003F00005F08AF806460025DFF86480194F0BE007
:100400004046FFF7B9FF3846FFF7C8FF06EB850007
:100410006D1C80ED000AADB2A542F1D30122214648
:10042000304605F0A7F8E1074FEA5400314606EBE5
:10043000800002D090ED008A09E010ED010AD0EDB5
:10044000000A30EE200AF6EE000A20EE208A084666
:1004500004F02AFFB0EE480ABDEC028BBDE8F08143
:1004600040420F00D000002010B504464B484168C0
:1004700021F4403141604168626811434160206865
:10048000416821F48071416020684168226941EA35
:10049000022141602068416821F04071416020687C
:1004A0004168A268114341602068816821F40061BD
:1004B000816020688168E26811438160A06A6FF002
:1004C0007061C8422068816821F070618160206895
:1004D00081680CD0A26A114381602068816821F094
:1004E0004051816020688168E26A114301E021F097
:1004F000405181602068816821F00201816020689C
:100500008168227E41EA4201816094F8200000283F
:100510003FD0606A401E072804D94FF4F56120A03F
:1005200004F090FE2068416841F400614160206859
:10053000416821F46041416020684168264B626A4D
:1005400003EB4232114341602068C16A21F470011B
:10055000C1622068C16AA28B204B03EB0252114397
:10056000C1622068816821F400718160206881681F
:1005700094F8302041EA422181602068816821F4AA
:100580008061816020688168626941EA82218160BE
:1005900010BD2068416821F40061D4E700230140C8
:1005A0002E2E2F447269766572732F53544D333259
:1005B000463478785F48414C5F4472697665722FA3
:1005C0005372632F73746D3332663478785F686169
:1005D0006C5F6164632E630000E0FFFF0000F0FFCA
:1005E000FEE7000010B5144802F000F9124C00209C
:1005F000216848621149086448648864C864062018
:1006000004F00BFB072004F008FB082004F005FBB6
:10061000092004F002FB322004F0FFFA022084F8E3
:100620003D002068C16841F00101C1602068016897
:1006300041F00101016010BDC009002078000020D8
:10064000014800F011BD00001809002001681823BE
:10065000CAB2103AB2FBF3F2054B6FF30901032A59
:100660009B5CC36500D9091D816508467047000081
:100670007656000810B5014600208B698A6A4FF053
:10068000C07453B1B3F5005F15D072B1012A0CD01C
:10069000022A0AD0032A09D104E01AB1012A06D09D
:1006A000022A03D1C96AC90100D5012010BDC96A57
:1006B000A142FAD010BD002AF7D0012AF2D0022AB6
:1006C000F3D0032AF3D010BD30B50468256825F4B3
:1006D00080252560046863608368402B036803D02D
:1006E00099600068C26030BD9A600068C16030BD2A
:1006F0007047012000F09CBF022000F099BF042049
:1007000000F096BF082000F093BF000072B602A070
:1007100004F02AFAFBE700004572726F725F4861CD
:100720006E646C65720D0A002DE9F04707462DEDE9
:10073000088B88B09FED4F8A20216846FFF77AFD2D
:100740004D4EDFF838910025DFED4D8A9FED4D9A33
:10075000A6F12404A9F1100806EBC500D4ED080A9F
:1007600094ED070A90EC021A04F08AFD2089F0EE5D
:10077000409A06EBC000D4ED080A94ED070A90EC0D
:10078000021A04F07DFD09EB850039EEC00A90EDF8
:10079000001A08EB85016D1CC1EE280AEDB2042D8C
:1007A00000EEC90A81ED000AB0EEC00A30EE088AF8
:1007B000D2D3B3EE040ADFF8C49088EE009ADFEDDE
:1007C00032AA0025EA46F1EE049AB2EE04AAF7EE48
:1007D000008A09F1100900BF08EB850696ED000AB2
:1007E000C0EE080AC6ED000AE08800EE100AB8EE76
:1007F000400A39EE00BA00EE107AF8EE400A80EEB8
:10080000A90A30EE4A0A04F037FA30EE280A04F05A
:1008100027FBC0EE2A0A09EBC50096ED001A0AEB89
:10082000C5016D1CEDB2042D38EEE00AD0ED000AD2
:100830002BEE000A60EE810A60EE800AC1ED000A2C
:10084000D0ED011A21EE811A21EE000A81ED010A94
:1008500094ED071A70EE810AC4ED070AD4ED080A78
:1008600030EE200A84ED080AB6D308B0BDEC088B40
:10087000BDE8F0870000000028000020880000206C
:10088000A037A04C0000AA436666263F2DE9F04140
:100890002A4FDFF8AC8000242DED028BA7F124064F
:1008A00007EBC401308991ED000A07EBC00208EBA9
:1008B000C405D2ED000A844230EE600A85ED000ADC
:1008C000D1ED010A92ED011A70EEC10AC5ED010ADF
:1008D00021D004F0CAFEB0EE408AB0EE080A04F05F
:1008E00075FB68EE000A95ED001A81EE200A85ED91
:1008F000000AD5ED010A04F0B8FEB0EE408AB0EE71
:10090000080A04F063FB28EE000AD5ED010A80EE28
:10091000801A85ED011A641CE4B2042CC0D30024B3
:1009200004E02046FFF700FF641CE4B2B088844274
:10093000F7D3BDEC028BBDE8F08100002800002059
:1009400098000020F8B500260546009608680C4679
:10095000122804D940F28B615DA004F073FC60683A
:10096000401E0F2804D940F28C6159A004F06AFCA3
:10097000A06890B1012810D002280ED003280CD016
:1009800004280AD0052808D0062806D0072804D055
:1009900040F28D614EA004F055FC95F83C00012812
:1009A00019D0012085F83C00206807212A68092811
:1009B00013D9D3680A3800EB400081408B43D360E1
:1009C0002178A0680A3901EB410188402968CA688A
:1009D0001043C86010E00220F8BD136900EB40002E
:1009E00081408B4313612178A06801EB410188406D
:1009F00029680A691043086160681F21072813D21B
:100A00002A68536B401E00EB800081408B43536388
:100A100021792088491E80B201EB81018840296834
:100A20004A6B1043486327E02A680D2812D2136BE3
:100A3000C01F00EB800081408B4313632179208825
:100A4000C91F80B201EB8101884029680A6B1043FD
:100A5000086311E0D36A0D3800EB800081408B43BE
:100A6000D362217920880D3980B201EB8101884061
:100A70002968CA6A1043C86224492A6822488A42FF
:100A800006D12268122A03D1426842F480024260F1
:100A90002A688A4218D12168102901D0112913D15E
:100AA000416841F400014160206810280CD11848C9
:100AB00018490068B0FBF1F000EB8000400000E056
:100AC000401E00900028FBD185F83C600020F8BD56
:100AD0002E2E2F447269766572732F53544D333224
:100AE000463478785F48414C5F4472697665722F6E
:100AF0005372632F73746D3332663478785F686134
:100B00006C5F6164632E630000230140002001409C
:100B10006400002040420F0010B50421034802F099
:100B20007FFC03490120087010BD000078090020F7
:100B300000000020704770472DE9F04704004FF097
:100B400000057DD07249206888420AD071498842E8
:100B500007D07149884204D04FF4A1716FA004F00E
:100B600071FB606868B1B0F5803F0AD0B0F5003F16
:100B700007D0B0F5403F04D040F2431167A004F025
:100B800061FBA0684FF080774FF000784FF040791C
:100B900050B1B84208D0404506D0484504D04FF483
:100BA000A2715EA004F04EFB206930B1012804D090
:100BB00040F2451159A004F045FB207E30B10128D8
:100BC00004D04FF4A37155A004F03CFB614EA06A21
:100BD00080B3B8422ED040452CD048452AD0B0F141
:100BE000806F27D0B0F1A06F24D0B0F1C06F21D0BA
:100BF000B0F1E06F1ED0B0F1006F1BD0B0F1106FFC
:100C000018D0B0F1206F15D0B0F1306F12D0B0F124
:100C1000406F0FD0B0F1506F0CD0B0F1606F09D0C1
:100C2000B0F1706F06D0B04204D040F247113BA043
:100C300004F008FBE06848B1B0F5006F06D000E0B2
:100C400043E04FF4A47135A004F0FCFAE069401EC3
:100C50000F2804D940F2491130A004F0F3FA94F8B7
:100C6000300030B1012804D04FF4A5712BA004F05E
:100C7000E9FA6069012807D030B1022804D040F2B7
:100C80004B1126A004F0DEFA94F8200030B10128C0
:100C900004D04FF4A67121A004F0D4FAA06AB042A7
:100CA0000FD0E06A68B1B0F1805F0AD0B0F1005FA8
:100CB00007D0B0F1405F04D04FF4A87117A004F042
:100CC000C1FA206C002618B108E00120BDE8F087C9
:100CD000204600F041F8666484F83C60206CC00651
:100CE00010D4206C20F4885040F00200206420468C
:100CF000FFF7BAFB6664206C20F0020040F00100B0
:100D0000206400E0012584F83C602846DEE700000E
:100D10000020014000210140002201402E2E2F44DE
:100D20007269766572732F53544D33324634787836
:100D30005F48414C5F4472697665722F5372632F2E
:100D400073746D3332663478785F68616C5F6164A8
:100D5000632E63000100000F70B586B006461421B3
:100D60006846FFF767FA1D493068884234D11C484D
:100D70000025016841F480710160006800F4807012
:100D8000059017481438016841F0010101600068BE
:100D9000694600F001000590102000900320CDE985
:100DA0000105104800F050FC104C0F48C4E9000544
:100DB0000015A560C4E90350400060618000A06197
:100DC0004011C4E907052046656200F01DFA08B12C
:100DD000FFF79CFCB463A66306B070BD0020014021
:100DE000443802400000024010640240180900200C
:100DF000F8B5002504460095007E16460F4630B132
:100E0000012804D040F25A5152A004F01BFAE06AC3
:100E100068B1B0F1805F0AD0B0F1005F07D0B0F1E7
:100E2000405F04D040F25B514AA004F00BFA94F802
:100E30003C00012807D0012084F83C00206881682C
:100E4000C90702D011E00220F8BD816841F001011C
:100E500081604E484E490068B0FBF1F000EB400065
:100E600000E0401E00900028FBD120688168C90581
:100E700003D5816821F48071816020688168C90789
:100E80005DD0216C40F20162914341F48071216494
:100E90004068400505D5206C20F4005040F4805097
:100EA0002064206CC00404D5606C20F006006064EF
:100EB00000E0656484F83C50A16B3748354DC86349
:100EC000A16B36480864A16B3548C86421686FF08F
:100ED000220008602068416841F08061416020681C
:100EE000816841F480718160216833463A464C3113
:100EF000A06B00F0F9FA68682A49C006206806D09D
:100F0000884224D1816811F0405F13D01FE08842ED
:100F1000F8D0254A904203D1D1F80423D206F1D06B
:100F2000224A904213D1D1F8041301F01F01102975
:100F3000E8D30CE0816841F08041816007E0206CDB
:100F400040F010002064606C40F0010060640020FC
:100F5000F8BD00002E2E2F447269766572732F53F0
:100F6000544D3332463478785F48414C5F4472695F
:100F70007665722F5372632F73746D3332663478D3
:100F8000785F68616C5F6164632E630064000020B9
:100F900040420F0000230140E90200086D030008F1
:100FA00057030008002001400021014000220140B9
:100FB0002DE9F0410446876D00F0FAFC064694F8EE
:100FC00035000025022806D08020606584F8345062
:100FD0000120BDE8F0812068016821F01601016060
:100FE0002068416921F080014161206C08B9A06C42
:100FF00020B12068016821F00801016020680168C3
:1010000021F0010101600CE000F0D2FC801B0528FA
:1010100007D920206065032084F8350084F8345017
:10102000D7E720680068C007EED194F85C103F2035
:101030008840B860012084F8350084F834500020DE
:10104000C7E790F83510022903D0802141650120BF
:101050007047052180F835100068016821F0010112
:1010600001600020704700002DE9F84304464FF06E
:101070000009CDF8009063484FF41651A56D006843
:10108000B0FBF1F72E6894F85C10082000FA01F12B
:1010900031420FD021680A6852070BD50A6822F046
:1010A00004020A6094F85C108840A860606D40F00B
:1010B0000100606594F85C104FF0010808FA01F037
:1010C000304208D021684969090604D5A860606DDE
:1010D00040F00200606594F85C10042088403042C3
:1010E00008D021680968890704D5A860606D40F0C0
:1010F0000400606594F85C1010208840304218D0DD
:1011000021680968090714D5A860206801684903A7
:1011100004D50068000308D5A16C07E00168C90583
:1011200003D4016821F008010160216C09B1204657
:10113000884794F85C1020208840304231D02168E4
:101140000968C9062DD5A86094F8350005282068DF
:10115000016806D0490347D5006800031DD4616CBF
:101160001CE021F0160101602068416921F0800136
:101170004161206C08B9A06C20B12068016821F0A1
:101180000801016094F85C103F208840A86084F852
:10119000358084F83490216D1FE0E16B09B1204661
:1011A0008847606D00282BD0606DC00714D00520E3
:1011B00084F835002068016821F001010160009881
:1011C000401C0090B84203D820680068C007F6D1E0
:1011D00084F8358084F83490E16C002910D001B097
:1011E0002046BDE8F04308470168C905D5D4016829
:1011F00021F01001016084F8358084F83490CCE748
:10120000BDE8F883640000202DE9F041044600F0B9
:10121000CFFB0546002C7CD0A249206888423ED0F6
:10122000A049183188423AD09E493031884236D0A0
:101230009C494831884232D09A49603188422ED048
:101240009849783188422AD096499031884226D0F0
:101250009449A831884222D0934988421FD09249AC
:10126000183188421BD090493031884217D08E49BE
:101270004831884213D08C49603188420FD08A4966
:10128000783188420BD088499031884207D086490E
:10129000A831884203D0B72184A003F0D3FF60684F
:1012A000C0B1B0F1007F15D0B0F1806F12D0B0F1B5
:1012B000C06F0FD0B0F1006F0CD0B0F1206F09D02B
:1012C000B0F1406F06D0B0F1606F03D0B82177A0C5
:1012D00003F0B8FFA06838B1402805D0802803D0BB
:1012E000B92172A003F0AEFFE068B0F5007F04D032
:1012F00018B1BA216DA003F0A5FF2069B0F5806F89
:1013000004D018B1BB2169A003F09CFF606958B1FB
:1013100000E071E0B0F5006F06D0B0F5805F03D05B
:10132000BC2162A003F08EFFA06948B1B0F5005F58
:1013300006D0B0F5804F03D0BD215CA003F082FF42
:10134000E06940B1B0F5807F05D0202803D0BE21F0
:1013500056A003F077FF206A60B1B0F5803F09D056
:10136000B0F5003F06D0B0F5403F03D0BF214FA0FD
:1013700003F068FF606A002832D0042806D0C0213C
:101380004AA003F05FFF606A002829D0A06A48B134
:10139000012807D0022805D0032803D0C52143A087
:1013A00003F050FFE06A60B1B0F5000F09D0B0F172
:1013B000807F06D0B0F1C07F03D0C6213BA003F0F0
:1013C00041FF206B60B1B0F5001F09D0B0F5800F70
:1013D00006D0B0F5C00F03D0C72134A003F032FF10
:1013E000022084F83500002684F834602068016803
:1013F00021F0010101600EE00120BDE8F08100BF95
:1014000000F0D6FA401B052805D92020606503208E
:1014100084F83500F1E720680068C007F0D1226841
:10142000116830480140D4E901031843D4E9033579
:101430002B43184363691843A3691843E3691843AE
:10144000236A18430843616A042903D1D4E90B13C2
:1014500019430843106020684069656A20F007005E
:1014600029460543012704290CD1A06A0543E06AF7
:1014700040B12046FFF7FEF820B14020606584F8B7
:101480003570B9E7206845612046FFF7DFF894F82A
:101490005C203F2191408160666584F835700020B2
:1014A000ABE7000010600240106402402E2E2F4473
:1014B0007269766572732F53544D3332463478789F
:1014C0005F48414C5F4472697665722F5372632F97
:1014D00073746D3332663478785F68616C5F646D05
:1014E000612E63003F8010F02DE9F04789460446E5
:1014F000876D0025581E4FF6FF711E4690468842A4
:1015000004D340F2CB111CA003F09CFE94F83400ED
:1015100001280DD0012084F8340094F83510002003
:10152000012907D084F8340002252846BDE8F08759
:101530000220FBE7022184F83510606533464246FD
:1015400049462046FFF7C0F894F85C103F208840D9
:10155000B8602068016841F016010160206C20B17C
:101560002068016841F0080101602068016841F0CD
:1015700001010160D9E700002E2E2F4472697665C3
:1015800072732F53544D3332463478785F48414C50
:101590005F4472697665722F5372632F73746D3373
:1015A00032663478785F68616C5F646D612E6300C9
:1015B00070B5044600F0FCF90546601C02D00448F2
:1015C0000078044400F0F4F9401BA042FAD370BD47
:1015D0005800002070B513490968496A124C134D30
:1015E000012821600BD002280FD0042813D008282E
:1015F00004D1092003F000FB2068E86070BD0620DC
:1016000003F0FAFA2068286070BD072003F0F4FAAE
:101610002068686070BD082003F0EEFA2068A860BA
:1016200070BD00007809002048000020B8000020AC
:10163000044910B50A68024202D00860FFF7CAFFE9
:1016400010BD0000143C01402DE9F84FDFF888B2CE
:101650000D46044658451BD0A048844218D0A048E7
:10166000844215D09F48844212D09F4884420FD0B4
:101670009E4884420CD09E48844209D09D488442B2
:1016800006D09D48844203D0AC219CA003F0DAFD33
:1016900028680104090C01D0000C03D0AD2197A0EB
:1016A00003F0D0FD6868F8B101281DD011281BD0C7
:1016B000022819D0122817D0B0F5881F14D0B0F521
:1016C000041F11D0B0F5441F0ED0B0F5901F0BD001
:1016D000B0F5081F08D0B0F5481F05D0032803D087
:1016E000AE2186A003F0AEFD00264FF0010A4FF0B8
:1016F000030900BF0AFA06F02F68804607404745F5
:101700007ED1287900F00300012801D002281DD1E4
:10171000E86848B1012807D0022805D0032803D083
:10172000C02176A003F08EFDA168720009FA02F0D4
:101730008143E86890400843A0606068297920EA06
:101740000800C1F30011B140014361602879C04332
:10175000800712D0A86838B1012805D0022803D02C
:10176000D12166A003F06EFDE168720009FA02F073
:101770008143A86890400843E060287900F00300A6
:1017800002282ED12869F8B109281DD001281BD0C4
:10179000022819D0032817D0042815D0052813D003
:1017A000062811D007280FD008280DD00A280BD002
:1017B0000B2809D00C2807D00D2805D00F2803D0FE
:1017C000DE214EA003F03EFDF00804EB8002106A1B
:1017D0007107CB0E0F219940884329699940014335
:1017E00011622068720009FA02F18843297901F038
:1017F0000301914001432160686810F4403F00E01C
:1018000063E062D04C48016841F4804101600068A7
:1018100026F0030100F48040009048480A18D2F8EE
:101820000808B1070B0F0F21994088435C4501D18F
:10183000002123E029498C4201D101211EE02849E1
:101840008C4201D1022119E026498C4201D10321A9
:1018500014E025498C4201D104210FE023498C4238
:1018600001D105210AE022498C4201D1062105E07F
:1018700020498C4201D1072100E008219940014311
:10188000C2F808182E4908686A68B843D20200D521
:10189000384308602A49091D08686A68B8439202FB
:1018A00000D5384308602649091F08686A68B843AC
:1018B000920300D5384308602149083908686A68EE
:1018C000B843D20300D538430860761C102EFFF4CD
:1018D00011AFBDE8F88F0000000002400004024094
:1018E00000080240000C02400010024000140240B8
:1018F00000180240001C0240002002402E2E2F44FF
:101900007269766572732F53544D3332463478784A
:101910005F48414C5F4472697665722F5372632F42
:1019200073746D3332663478785F68616C5F6770AA
:10193000696F2E630000000044380240003001400F
:10194000083C014070B515460C00064604D140F233
:101950009D1108A003F076FC45B1012D04D04FF491
:10196000CF7104A003F06EFCB46170BD2004B061BF
:1019700070BD00002E2E2F447269766572732F534E
:10198000544D3332463478785F48414C5F44726935
:101990007665722F5372632F73746D3332663478A9
:1019A000785F68616C5F6770696F2E63000000008C
:1019B0000148806870470000580000200248816894
:1019C0000278114481607047580000200B4810B520
:1019D000016841F400710160016841F480610160B7
:1019E000016841F480710160032000F0C3F80F200A
:1019F00000F006F800F024F8002010BD003C024082
:101A000070B50D4D04464FF47A712878B1FBF0F0B3
:101A10000A490968B1FBF0F000F0B6FC48B9102C97
:101A200007D200222146501E00F054F800206C60BE
:101A300070BD012070BD000058000020640000202F
:101A40000A4808B5016841F480410160006800F46B
:101A5000804000900548001F016841F080510160FE
:101A6000006800F08050009008BD0000443802403B
:101A700010B5040003D5BC2107A003F0E3FB002C44
:101A800009DB04F01F01012088406109890001F190
:101A9000E021C1F8000110BD2E2E2F447269766539
:101AA00072732F53544D3332463478785F48414C2B
:101AB0005F4472697665722F5372632F73746D334E
:101AC00032663478785F68616C5F636F72746578D2
:101AD0002E63000070B515460C460646102A03D347
:101AE000A82114A003F0AEFB102C03D3A92111A050
:101AF00003F0A8FB1E480068C0F30223C3F10702ED
:101B00002046042A00D90422191D072901D20023E6
:101B100000E0DB1E012404FA02F1491E0140994055
:101B20009C40641E2C4021433046BDE8704003F0C9
:101B300093B800002E2E2F447269766572732F536E
:101B4000544D3332463478785F48414C5F44726973
:101B50007665722F5372632F73746D3332663478E7
:101B6000785F68616C5F636F727465782E630000E4
:101B70000CED00E010B5044607280BD0062C09D068
:101B8000052C07D0042C05D0032C03D0902108A0ED
:101B900003F058FB154904F0070208684FF6FF03ED
:101BA000184040EA0220124A1043086010BD0000AD
:101BB0002E2E2F447269766572732F53544D333233
:101BC000463478785F48414C5F4472697665722F7D
:101BD0005372632F73746D3332663478785F686143
:101BE0006C5F636F727465782E6300000CED00E02B
:101BF0000000FA052DE9F0470E4604007DD020686C
:101C0000401E0E2804D940F25A217AA003F01AFB94
:101C100096B1012E10D0022E0ED0032E0CD0042E21
:101C20000AD0052E08D0062E06D0072E04D040F28A
:101C30005B2170A003F006FBDFF8F081D8F800000C
:101C4000F7B200F00700B04207D288F80070D8F869
:101C5000000000F00700B0424FD12068744D8107AA
:101C600029D5400703D5286840F4E0502860207843
:101C7000000703D5286840F460402860A068A0B140
:101C8000802812D0902810D0A0280ED0B0280CD0D8
:101C9000C0280AD0D02808D0E02806D0F02804D0E8
:101CA00040F27E2153A003F0CDFA2868A16820F00D
:101CB000F000084328602078C00743D0DFF8709117
:101CC0006068A9F1080988B1012822D0022824D02F
:101CD000032822D040F2852146A003F0B3FA6068C1
:101CE000012816D0022818D0032816D0D9F80000F1
:101CF0008007002833DA286800E030E0616820F0CF
:101D0000030008432860FFF753FE814641F2883AFA
:101D100011E0D9F800008003EBE7D9F8000080015A
:101D2000E7E700BFFFF744FEA0EB0901514502D9E8
:101D30000320BDE8F0872868616800F00C00B0EB74
:101D4000810FEFD1D8F80010404601F00701B142F1
:101D500007D90770006800F00700B04201D00120E9
:101D6000E7E720784FF4805640074FF4A0574FF430
:101D7000C0584FF4E05914D5E06860B1B0420AD0C1
:101D8000B84208D0404506D0484504D040F2C321AF
:101D900018A003F057FA2868E16820F4E0500843DF
:101DA00028602078000715D5206960B1B0420AD0BC
:101DB000B84208D0404506D0484504D040F2CA2178
:101DC0000CA003F03FFA2868216920F4604040EA43
:101DD000C100286000F054F82968164AC1F30311C5
:101DE000515CC8401449086014480068FFF708FEB9
:101DF00000209EE72E2E2F447269766572732F5352
:101E0000544D3332463478785F48414C5F447269B0
:101E10007665722F5372632F73746D333266347824
:101E2000785F68616C5F7263632E6300003C024000
:101E3000083802407E560008640000205C00002044
:101E40000448054900680968044AC1F38221515CCD
:101E5000C840704764000020083802408E560008D1
:101E60000448054900680968044AC1F34231515CDD
:101E7000C840704764000020083802408E560008B1
:101E8000154810B5006810F00C02144813D041102A
:101E9000042A0FD0082A0ED10F4C241F2268236871
:101EA00002F03F025B0207D52068C0F38810A0FB58
:101EB000010106E0084610BD2168C1F38811A1FBAD
:101EC00000010023FEF77EF92168C1F30141491C9E
:101ED0004900B0FBF1F010BD083802400024F400C6
:101EE0002DE9F84F04007DD020680F2803D9E621A2
:101EF000F7A003F0A7F92078DFF80C94C007A9F148
:101F0000040555D060684FF480364FF4A02738B1EF
:101F1000B04205D0B84203D0EB21EDA003F092F916
:101F2000F948001D0168C1F38101012908D000684A
:101F3000C0F3810002280AD1D9F80000400206D57A
:101F40002868800334D560680028CCD030E0606811
:101F5000B04203D1286840F480300CE0B8422868D1
:101F600003D140F480202860F4E720F4803028601A
:101F7000286820F480202860606860B1FFF718FDB1
:101F8000064604E0FFF714FD801B64287ED828680D
:101F90008003F7D50CE0FFF70BFD064605E000BF18
:101FA000FFF706FD801B6428F0D828688003F7D46B
:101FB0002078DFF8588380074FF0000A56D5E06894
:101FC00030B1012804D040F21D11C1A003F03AF94C
:101FD00020691F2804D94FF48F71BDA003F032F996
:101FE000C94800E092E0001D016811F00C0F08D014
:101FF0000068C0F38100022810D1D9F80000400227
:102000000CD42868800702D5E06801287ED12868B2
:10201000216920F0F80040EAC10017E0E068B8B19B
:102020000120C8F80000FFF7C3FC064605E000BF2A
:10203000FFF7BEFC801B0228A8D828688007F7D5C8
:10204000286820F0F801206941EAC00028600DE00E
:10205000C8F800A0FFF7ACFC064604E0FFF7A8FCB8
:10206000801B022892D828688007F7D420780007C0
:102070002ED5A54EA64F60697036D0B1012808D084
:102080004FF4AF7192A003F0DDF800E04BE160691E
:1020900078B101203860FFF78BFC074605E000BFF0
:1020A000FFF786FCC01B0228C6D830688007F7D52A
:1020B0000EE0C7F800A0FFF77BFC074605E000BF75
:1020C000FFF776FCC01B0228B6D830688007F7D42B
:1020D0002078400776D5A068002740B1012806D0B7
:1020E000052804D04FF4C57179A003F0ABF8DFF8F0
:1020F00018B20BF13C0BDBF80000C0000DD4DBF88C
:10210000001041F08051CBF8001000E038E1DBF81E
:102110000000012700F0805000907E4E3068C0051E
:1021200011D4306840F480703060FFF741FC0090BB
:1021300006E000BFFFF73CFC0099401A022891D846
:102140003068C005F6D5704EA0686C3601280FD0F7
:102150000528306810D020F001003060306820F091
:1021600004003060A068B8B1FFF722FC00900FE0D7
:10217000306840F00100F4E740F004003060F7E719
:10218000FFF716FC0099411A41F2883081428BD842
:1021900030688007F4D50EE0FFF70AFC009007E0F6
:1021A000FFF706FC0099411A41F2883081428BD832
:1021B00030688007F4D42FB1DBF8001021F0805193
:1021C000CBF80010A069002876D0012809D0022899
:1021D00007D040F2CD113EA003F034F8A0690028EA
:1021E000F2D04948001D0068C0F381000228A069B0
:1021F0006DD0022805D0C8F860A0FFF7D9FB0446CF
:1022000094E0E06938B1B0F5800F04D04FF4EB7181
:102210002FA003F017F8206A3F2804D940F2D71105
:102220002BA003F00FF8606A3238B0F5BF7F04D9F5
:102230004FF4EC7126A003F005F8A06A02280AD03A
:10224000042808D0062806D0082804D040F2D91166
:102250001FA002F0F7FFE06A801E0D2804D94FF49A
:10226000ED711BA002F0EEFF4746C8F860A0FFF733
:102270009FFB064605E000BFFFF79AFB801B022884
:1022800051D828688001F7D4D4E907010843A16A2E
:10229000214A490802EB0141626A41EA821108437E
:1022A00094F82C1040EA0161C9F80010012038664A
:1022B000FFF77EFB044606E064E000BFFFF778FB13
:1022C000001B02282FD828688001F7D55AE031E09A
:1022D0002E2E2F447269766572732F53544D33320C
:1022E000463478785F48414C5F4472697665722F56
:1022F0005372632F73746D3332663478785F68611C
:102300006C5F7263632E6300043802400000474232
:10231000800E4742007000400000FFFFFFF748FBBF
:10232000001B022802D90320BDE8F88F286880012D
:10233000F4D427E00128F7D0D9F80000E26900F4CE
:10234000800191421CD1226A00F03F01914217D1D5
:1023500047F6C071626A0140B1EB821F10D1A26AD8
:102360004FF0FF3300F4403103EB5202B1EB024F68
:1023700006D194F82C1000F07060B0EB016F01D022
:102380000120D1E70020CFE710B5401EB0F1807FDB
:1023900001D3012010BD4FF0E02460610F216017D0
:1023A00002F05AFC0020A06107202061002010BD2F
:1023B000704770472DE9F05F044600683A4E3B4F86
:1023C000DFF8EC80DFF8EC90DFF8ECA00D464FF082
:1023D000804BB04215D0584513D0B84211D040457B
:1023E0000FD048450DD04FEAB641884209D0334955
:1023F000884206D0504504D040F2B17130A002F0BE
:1024000021FF286890B1102810D020280ED0302845
:102410000CD040280AD0502808D0602806D0702858
:1024200004D040F2B27126A002F00CFF6868802848
:1024300005D020B140F2B37121A002F003FF94F85F
:102440003C0001282DD0012284F83C20022084F891
:102450003D00216848688B6820F0700C286840EACD
:102460000C0048602068B0420FD058450DD0B842EB
:102470000BD0404509D0484507D0504505D01F49ED
:10248000884202D01E49884204D1696823F0800343
:102490001943816084F83D20002084F83C00BDE8A9
:1024A000F09F0220FBE70000000001400004004014
:1024B00000080040000C00400004014000140040EF
:1024C0002E2E2F447269766572732F53544D33321A
:1024D000463478785F48414C5F4472697665722F64
:1024E0005372632F73746D3332663478785F68612A
:1024F0006C5F74696D5F65782E6300000040014079
:102500000018004010B5040058D03F4920688842A8
:102510002BD0B0F1804F28D03C49884225D03C498F
:10252000884222D03B4988421FD03B4988421CD078
:102530003A49884219D03A49884216D039498842E6
:1025400013D03949884210D0384988420DD03849D3
:1025500088420AD03749884207D03749884204D098
:1025600040F2131135A002F06DFEA06860B1102892
:102570000AD0202808D0402806D0602804D04FF484
:102580008A712EA002F05EFE206950B1B0F5807F06
:1025900007D0B0F5007F04D040F2151127A002F05B
:1025A00051FEA06930B1802804D04FF48B7123A074
:1025B00002F048FE94F83D0010B107E0012010BD84
:1025C000002084F83C00204600F054F8022084F8F3
:1025D0003D00211D206801F06BFD012084F84600BC
:1025E00084F83E0084F83F0084F8400084F84100FD
:1025F00084F8420084F8430084F8440084F84500DD
:1026000084F83D00002010BD00000140000400409F
:1026100000080040000C0040001000400014004082
:1026200000040140004001400044014000480140D6
:1026300000180040001C0040002000402E2E2F44B7
:102640007269766572732F53544D333246347878FD
:102650005F48414C5F4472697665722F5372632FF5
:1026600073746D3332663478785F68616C5F746957
:102670006D2E630008B501681048B1F1804F14D089
:102680000F4A914219D1016841F0080101600068C8
:10269000002200F00800009011463220FFF71AFADD
:1026A000BDE808403220FFF7E3B9016841F00101BD
:1026B0000160006800F00100009008BD4038024051
:1026C000000C00402DE9F05F044600682D4D2E4EB1
:1026D0002E4FDFF8BC80DFF8BC90DFF8BCA0DFF83D
:1026E000BCB0A84226D0B0F1804F23D0B04221D058
:1026F000B8421FD040451DD04FEAB541884219D09D
:102700002749884216D0484514D0504512D0254953
:1027100088420FD0244988420CD058450AD023491A
:10272000884207D02249884204D04FF4CA7121A0C0
:1027300002F088FD94F83D00012802D00120BDE898
:10274000F09F022084F83D002068A8420ED0B0F12E
:10275000804F0BD0B04209D0B84207D0404505D0D9
:10276000484503D0504501D0584504D1816801F057
:102770000701062903D0016841F001010160002032
:10278000DDE70000000001400004004000080040B8
:10279000000C0040000401400040014000180040CF
:1027A000001400400044014000480140001C00406B
:1027B000002000402E2E2F447269766572732F53CD
:1027C000544D3332463478785F48414C5F447269E7
:1027D0007665722F5372632F73746D33326634785B
:1027E000785F68616C5F74696D2E630010B5044694
:1027F0000168234881422BD0B1F1804F28D0214875
:10280000814225D02048814222D0204881421FD0D9
:102810001F4881421CD01F48814219D01E48814266
:1028200016D01E48814213D01D48814210D01D4849
:1028300081420DD01C4881420AD01C48814207D0F9
:102840001B48814204D040F2F7111AA002F0FAFCB2
:102850002068C16821F00101C1602068016A41F26D
:102860001112114207D1016A9210114203D101687D
:1028700021F001010160012084F83D00002010BD1D
:10288000000001400004004000080040000C00402F
:1028900000100040001400400004014000400140CE
:1028A000004401400048014000180040001C004066
:1028B000002000402E2E2F447269766572732F53CC
:1028C000544D3332463478785F48414C5F447269E6
:1028D0007665722F5372632F73746D33326634785A
:1028E000785F68616C5F74696D2E63002DE9F84F45
:1028F00005460020009095F83C000C46012841D088
:10290000012085F83C00022085F83D0020684FF446
:10291000805B584516D0702814D0B0F5005F11D0F8
:1029200040280FD050280DD060280BD050B110286F
:1029300008D0202806D0302804D041F2B741D4A0D6
:1029400002F080FC2868816821F0770121F47F4142
:1029500081602068DC49DD4ADD4BDE4EDE4FDFF86A
:102960007CC3DFF87C834FF080494FF4004A502845
:102970007ED00FDC202804D007DC0028FBD01028F4
:1029800077D161E10220BDE8F88F3028F9D04028E6
:10299000F6D126E160286DD0702874D0584544D017
:1029A0004FF400584045EBD1286888420ED0484586
:1029B0000CD090420AD0984208D0B04206D0B8421B
:1029C00004D041F2E241B2A002F03CFCA06858B150
:1029D000584509D0404507D0B0F5405F04D041F2DA
:1029E000E541ABA002F02EFC6068504509D040B133
:1029F000022806D00A2804D041F2E641A4A002F041
:102A000021FCE0680F2804D941F2E741A0A002F0C0
:102A100019FCD4E90121E368286801F027FC286843
:102A2000816841F48041816029E128688842FBD0B7
:102A30004845F9D09042F7D09842F5D0B042F3D053
:102A4000A8498842F0D0A8498842EDD0B842EBD0DE
:102A50006045E9D0A5498842E6D0A5498842E3D03F
:102A60004045E1D0A3498842DED0A349884203E033
:102A70004FE002E180E006E0D6D041F2C34184A0FD
:102A800002F0E0FBFBE02868884212D0484510D0F5
:102A900090420ED098420CD0B0420AD0B84208D032
:102AA000604506D0404504D041F2CA4178A002F00A
:102AB000C9FBA06860B158450AD0B0F5005F07D0E7
:102AC000B0F5405F04D041F2CD4171A002F0BAFBF5
:102AD0006068504509D040B1022806D00A2804D0C9
:102AE00041F2CE416AA002F0ADFBE0680F2804D9A4
:102AF00041F2CF4166A002F0A5FBD4E90121E368D1
:102B0000286801F0B3FB2968886840F07700886086
:102B1000B5E02868884212D0484510D090420ED0C7
:102B200098420CD0B0420AD0B84208D0604506D0D6
:102B3000404504D041F2F64155A002F083FB6068A5
:102B4000504509D040B1022806D00A2804D041F2ED
:102B5000F9414FA002F076FBE0680F2804D941F25A
:102B6000FA414BA002F06EFBE2686168286801F050
:102B70003FFD5021286831E02868884212D048453E
:102B800010D090420ED098420CD0B0420AD0B84239
:102B900008D0604506D0404504D041F206513CA023
:102BA00002F050FB6068504509D040B1022806D0C1
:102BB0000A2804D041F2095135A002F043FBE06835
:102BC0000F2804D941F20A5131A002F03BFBE26820
:102BD0006168286801F01DFD6021286801F050FB44
:102BE0004DE02868884212D0484510D090420ED05F
:102BF00098420CD0B0420AD0B84208D0604506D006
:102C0000404504D041F2165121A002F01BFB606840
:102C1000504509D040B1022806D00A2804D041F21C
:102C200019511BA002F00EFBE0680F2804D941F2F5
:102C30001A5117A002F006FBE2686168286801F0EB
:102C4000D7FC40212868C9E72868884212D0484547
:102C500010D090420ED098420CD0B0420AD0B84268
:102C600008D0604506D0404504D041F2295108A063
:102C700002F0E8FA21682868B0E7012000900120FE
:102C800085F83D00002085F83C0000987BE60000B8
:102C90002E2E2F447269766572732F53544D333242
:102CA000463478785F48414C5F4472697665722F8C
:102CB0005372632F73746D3332663478785F686152
:102CC0006C5F74696D2E63000000014000040040D9
:102CD00000080040000C004000040140004001409A
:102CE0000018004000100040001400400044014063
:102CF00000480140001C004000200040704770B5B3
:102D00000446006801694FF00005C943890715D4DE
:102D1000C168C943890711D4E91E016101202077E8
:102D2000206880698007204602D0FFF7E7FF04E0B3
:102D300000F098F8204600F084FA257720680169B1
:102D4000C943490717D4C168C943490713D46FF071
:102D500004010161022020772068806910F4407F1F
:102D6000204602D0FFF7CAFF04E000F07BF82046BF
:102D700000F067FA257720680169C943090716D46E
:102D8000C168C943090712D46FF00801016104202A
:102D900020772068C0698007204602D0FFF7AEFF89
:102DA00004E000F05FF8204600F04BFA2577206839
:102DB0000169C943C90617D4C168C943C90613D4F8
:102DC0006FF010010161082020772068C06910F4BD
:102DD000407F204602D0FFF791FF04E000F042F868
:102DE000204600F02EFA257720680169C943C907FB
:102DF00008D1C168C943C90704D1891E01612046B1
:102E000000F0E0FB20680169C943090609D4C168E4
:102E1000C943090605D46FF0800101612046FFF720
:102E2000C7FA20680169C943490609D4C168C94382
:102E3000490605D46FF040010161204600F0CEFB49
:102E400020680169C94389060BD4C168C943890652
:102E500007D46FF0200101612046BDE87040FFF704
:102E6000A8BA70BD704700002DE9F05F16000D464E
:102E700004464FF000090CD0042E0AD0082E08D0CA
:102E80000C2E06D03C2E04D041F2770177A002F040
:102E9000D9F92868602806D0702804D041F278015A
:102EA00072A002F0CFF9A86830B1022804D041F234
:102EB00079016EA002F0C6F9286930B1042804D067
:102EC00041F27A0169A002F0BDF994F83C000128B2
:102ED0001CD001207349744A744B754FDFF8D4C17C
:102EE000DFF8D4A1DFF8D4B184F83C004FF080487B
:102EF00076B1042E41D0082E6AD00C2E7DD08146AA
:102F0000002084F83C004846BDE8F09F0220FBE723
:102F1000206888421ED040451CD090421AD098426A
:102F200018D0B84216D0604514D0504512D064492C
:102F300088420FD0634988420CD058450AD0624974
:102F4000884207D06149884204D041F2840147A0F9
:102F500002F078F92946206801F09AF92068816921
:102F600041F0080181612068816921F004018161DB
:102F7000206881692A69114328E02068884212D0BC
:102F8000404510D090420ED098420CD0B8420AD0A2
:102F9000604508D0504506D0584504D041F295010F
:102FA00032A002F04FF92946206801F0E3F92068C9
:102FB000816941F4006181612068816921F4806147
:102FC0008161206881692A6941EA0221816197E76C
:102FD000206888420ED040450CD090420AD09842DA
:102FE00008D0B84206D0604504D041F2A6011FA027
:102FF00002F028F92946206800E010E001F030FADC
:103000002068C16941F00801C1612068C16921F0EF
:103010000401C1612068C1692A69114324E0206864
:1030200088420ED040450CD090420AD0984208D039
:10303000B84206D0604504D041F2B7010BA002F0BF
:1030400001F92946206801F081FA2068C16941F43C
:103050000061C1612068C16921F48061C16120689B
:10306000C1692A6941EA0221C16149E72E2E2F4434
:103070007269766572732F53544D333246347878C3
:103080005F48414C5F4472697665722F5372632FBB
:1030900073746D3332663478785F68616C5F74691D
:1030A0006D2E630000000140000400400008004055
:1030B000000C0040000401400040014000180040A6
:1030C0000044014000480140001C00400020004036
:1030D00010B5040058D03F49206888422BD0B0F189
:1030E000804F28D03C49884225D03C49884222D094
:1030F0003B4988421FD03B4988421CD03A4988420C
:1031000019D03A49884216D03949884213D03949F2
:10311000884210D0384988420DD0384988420AD0B8
:103120003749884207D03749884204D040F22951B4
:1031300035A002F087F8A06860B110280AD02028D6
:1031400008D0402806D0602804D040F22A512EA092
:1031500002F078F8206950B1B0F5807F07D0B0F563
:10316000007F04D040F22B5127A002F06BF8A06939
:1031700030B1802804D040F22C5123A002F062F834
:1031800094F83D0010B107E0012010BD002084F844
:103190003C00204600F054F8022084F83D00211D38
:1031A000206800F085FF012084F8460084F83E0086
:1031B00084F83F0084F8400084F8410084F842001D
:1031C00084F8430084F8440084F8450084F83D0006
:1031D000002010BD00000140000400400008004035
:1031E000000C0040001000400014004000040140AA
:1031F00000400140004401400048014000180040E8
:10320000001C0040002000402E2E2F44726976657D
:1032100072732F53544D3332463478785F48414CA3
:103220005F4472697665722F5372632F73746D33C6
:1032300032663478785F68616C5F74696D2E630004
:10324000704770472DE9F05F05460068DFF86C8134
:103250000227DFF86C91DFF86CA1DFF86CB15B4EF0
:103260000C46404507D1002C63D0042C68D0082CB4
:103270006DD00C2C56D0B0F1804F4CD0484507D1C2
:10328000002C56D0042C5BD0082C60D00C2C49D0DC
:10329000504506D1F4B3042C52D0082C57D00C2C36
:1032A00040D0584506D1ACB3042C49D0082C4ED0A0
:1032B0000C2C37D0B04206D164B3042C40D0082C7B
:1032C00045D00C2C2ED04249884202D114B3042C94
:1032D00036D04049884200D1E4B13F49884200D10C
:1032E000C4B13E49884202D1A4B1042C28D03C4943
:1032F000884200D174B13B49884200D154B140F2B8
:10330000AF5139A001F09EFF24B1042C18D0082C35
:103310001DD007E00DE064B1042C11D0082C16D0AC
:103320000C2CECD195F84100012817D00120BDE804
:10333000F09F95F83E000128F8D185F83E700FE027
:1033400095F83F000128F1D185F83F7008E095F825
:1033500040000128EAD185F8407001E085F841700D
:1033600001222146286800F007FF2868404501D067
:10337000B04203D1426C42F40042426428684045A6
:1033800010D0B0F1804F0DD048450BD0504509D03A
:10339000584507D0B04205D00D49884202D00F49A8
:1033A000884204D1816801F00701062903D0016831
:1033B00041F0010101600020B9E700000000014078
:1033C0000004004000080040000C004000040140E0
:1033D0000040014000440140004801400018004006
:1033E000001C0040002000402E2E2F44726976659C
:1033F00072732F53544D3332463478785F48414CC2
:103400005F4472697665722F5372632F73746D33E4
:1034100032663478785F68616C5F74696D2E630022
:103420002DE9F041054600684D4E4E4F0C46B04226
:1034300007D1002C53D0042C51D0082C4FD00C2C89
:103440004DD0B0F1804F78D04749884207D1002C49
:1034500045D0042C43D0082C41D00C2C3FD04349FC
:10346000884206D1BCB3042C39D0082C37D00C2CA0
:1034700035D03F49884206D16CB3042C2FD0082C9C
:103480002DD00C2C2BD0B84206D124B3042C26D03E
:10349000082C24D00C2C22D03649884202D1D4B139
:1034A000042C1CD03449884200D1A4B1334988424D
:1034B00000D184B13249884202D164B1042C0ED0CB
:1034C0003049884200D134B12F49884200D114B12B
:1034D00040F2E35100E002E02CA001F0B3FE002234
:1034E0002146286800F048FE41F2111128688A1030
:1034F000B04201D0B84209D1036A0B4206D1036A37
:10350000134203D1436C23F4004343642868036AE5
:103510000B4206D1016A114203D1016821F0010179
:103520000160012094B1042C13D0082C14D085F82C
:1035300041000020BDE8F081FFE7002CCFD0042C33
:10354000CDD0082CCBD00C2CC9D0C1E785F83E00DB
:10355000EFE785F83F00ECE785F84000E9E7000079
:103560000000014000040140000400400008004049
:10357000000C004000400140004401400048014070
:1035800000180040001C0040002000402E2E2F4458
:103590007269766572732F53544D3332463478789E
:1035A0005F48414C5F4472697665722F5372632F96
:1035B00073746D3332663478785F68616C5F7469F8
:1035C0006D2E630010B50348FFF710F90249012082
:1035D000087010BDC0090020070000207047704728
:1035E000704710F83D1F407808437047F8B50168F0
:1035F00004460868CA684B6910F00F0F4FF00005C9
:1036000059D003F0010602F49077374365D0C10723
:1036100005D0D10503D5216C41F00101216441079A
:1036200005D5D90703D0216C41F00201216481073F
:1036300005D5D90703D0216C41F0040121640107AD
:1036400007D502F02001314303D0216C41F008017D
:103650002164216C00293AD0800604D5900602D559
:10366000204601F0DFF820684069216CC0F380102B
:10367000090700D460B3204601F08CF82068406947
:10368000400621D52068143050E8001F21F0400189
:1036900040E80012002AF5D1A06BA8B16C49016581
:1036A000A06BFDF7CEFC002811D0A06B016D01B01E
:1036B000BDE8F040084783060FD593060DD5204698
:1036C000BDE8F84001F0AEB82046FFF789FFF8BD2D
:1036D0002046FFF785FF2564F8BD266B2023012EC9
:1036E00079D1C60677D5D60675D5086848680090A2
:1036F0004869400640D5A16B086840680004000C8A
:10370000EAD0A28D8242E7D9E085C869B0F5807F12
:103710002DD020680C3050E8001F21F4807140E863
:103720000012002AF5D12068143050E8001F21F063
:10373000010140E80012002AF5D12068143050E859
:10374000001F21F0400140E80012002AF5D184F862
:103750003E30256320680C3050E8001F21F0100136
:1037600040E80012002AF5D1A06BFDF721FCA08DE6
:10377000E18D401A81B229E0A08DE18D401A81B21D
:10378000E08D0028A8D00029A6D020680C3050E891
:10379000002F22F4907240E80026002EF5D1206818
:1037A000143050E8002F22F0010240E80026002EDD
:1037B000F5D184F83E30256320680C3050E8002FA6
:1037C00022F0100240E80023002BF5D12046FFF73D
:1037D00006FFF8BDFFE705062BD5150629D594F899
:1037E0003D002128F5D1A068B0F5805F01D12069A6
:1037F000B0B1206A411C2162216800784860E08CE9
:10380000401E0004000CE084E3D12068C16821F070
:103810008001C1602068C16841F04001C160D8E703
:10382000206A0088C0F308004860206A801C20627B
:10383000E5E74006CDD55006CBD5CA68204622F034
:103840004002CA6084F83D3000F09BF9C1E70000F7
:103850008547000870B5040023D0A0693B490028C3
:103860003B4A3C4B3C4D20681DD088420CD09042D6
:103870000AD0984208D0A84206D040F2731137A06F
:1038800001F0E0FCA06908B3A069B0F5807F1DD00D
:10389000B0F5007F1AD0B0F5407F17D04FF4BA7161
:1038A00011E0012070BD884210D090420ED09842A5
:1038B0000CD03949884209D03849884206D0A842FC
:1038C00004D04FF4BC7125A001F0BCFCA06838B155
:1038D000B0F5805F04D04FF4BD7120A001F0B2FCC0
:1038E000E06938B1B0F5004F04D040F27B111BA065
:1038F00001F0A8FC94F83D00002520B984F83C5064
:10390000204600F04DF8242084F83D002068C1686E
:1039100021F40051C160204600F0E4FF20680169F5
:1039200021F4904101612068416921F02A0141613F
:103930002068C16841F40051C1602564202084F8EA
:103940003D0084F83E00002070BD000000100140E2
:103950000044004000480040001401402E2E2F4437
:103960007269766572732F53544D333246347878CA
:103970005F48414C5F4472697665722F5372632FC2
:1039800073746D3332663478785F68616C5F75612B
:1039900072742E6300000000004C00400050004094
:1039A00010B586B0044614216846FCF743FC18495C
:1039B0002068884229D117480021026842F010028D
:1039C0000260006800F01000059012481438026888
:1039D00042F001020260006800F0010005904FF41F
:1039E000C06000900220CDE9010103200390072070
:1039F000049069460848FDF727FE0022114625205D
:103A0000FEF768F82520FEF733F806B010BD000079
:103A100000100140443802400000024090F83E305F
:103A2000202B0ED159B152B190F83C30012B08D067
:103A3000012380F83C300023036301F023B8012008
:103A400070470220704700001A4B10B5D888002438
:103A5000802809D3DC8080211748FCF7EBFB0D217F
:103A600016A001F06FF81DE013499A7A0A54401C21
:103A700080B2D880032815D9014411F8032CFF2AFD
:103A800010D111F8022CFF2A0CD111F8011CFF29CA
:103A900008D1C1B2084800F0A5FEDC8080210648AC
:103AA000FCF7C8FB03490122BDE810400A31074872
:103AB000FFF7B4BF4C000020080A00204F76657263
:103AC000666C6F772121210A00000000080B00209E
:103AD0002DE9F843044690F83D001F4616460D4672
:103AE00020284CD1C5B1BEB194F83C00012846D085
:103AF000012084F83C004FF00008C4F840802120E9
:103B000084F83D00FDF754FFA6848146E684A06852
:103B1000B0F5805F03D004E00120BDE8F8832069A0
:103B200028B12E465FF0000584F83C800EE00026A8
:103B3000FAE78021204600F0C2FFA0B9AEB116F826
:103B4000010B21684860E08C401EE084E08C4B460D
:103B50004FF0000200970028EBD14FF040012046C3
:103B600000F0ADFF30B10320D7E735F8020BC0F30A
:103B70000800E6E7202084F83D000020CDE7022081
:103B8000CBE77047FEE700007FB50024164800949D
:103B9000019402941349039401604FF48031C0E909
:103BA00001140461047680F820400903C1620125F4
:103BB000C5614FF04071C460816280F8305045614A
:103BC000FCF7BAFF08B1FCF7A1FD0420CDE9000520
:103BD000694602940448FCF7B5FE002801D0FCF7C2
:103BE00095FD7FBD00200140D0080020094808B5A0
:103BF000016841F4800101600068002200F4800047
:103C0000009011463820FDF765FFBDE808403820D8
:103C1000FDF72EBF3038024030B587B0142168461A
:103C2000FCF708FB2A480024016841F0800101608C
:103C3000016801F080010591016841F00101016016
:103C4000016801F001010591016841F00401016082
:103C50000068204D00F00400059000221021284645
:103C6000FDF770FE0F2000904FF48810CDE901049D
:103C700069461948FDF7E8FC102000900120CDE9C5
:103C80000104694628460394FDF7DEFC0022114634
:103C90000620FDF71FFF0620FDF7EAFE0022114671
:103CA0000720FDF717FF0720FDF7E2FE002211466F
:103CB0000820FDF70FFF0820FDF7DAFE002211466D
:103CC0000920FDF707FF0920FDF7D2FE07B030BD40
:103CD00030380240000802400000024010B58EB0AB
:103CE00000240794089409940A940B941C216846B4
:103CF0000C94FCF79FFA1C484FF08041C0E9001477
:103D00001A49C0E9024104618461FEF7FBFB08B176
:103D1000FCF7FCFC4FF48050079007A91248FEF70F
:103D2000E5FD08B1FCF7F2FC0F48FFF7D1F908B147
:103D3000FCF7ECFC0B940BA90B480C94FEF73AFB38
:103D400008B1FCF7E3FC6020CDE9000402940422F2
:103D5000694605480494FFF787F8002801D0FCF76E
:103D6000D5FC0EB010BD00007809002057E60E000B
:103D700010B586B000241648009401940294039470
:103D8000049412490594C0E900141249C0E90241A3
:103D9000802104618161FEF7B5FB08B1FCF7B6FC38
:103DA0004FF48050009069460948FEF79FFD08B126
:103DB000FCF7ACFC049404A905480594FEF7FAFA54
:103DC000002801D0FCF7A2FC06B010BD000C00409A
:103DD000C009002080DE80020E4810B50C49016049
:103DE0004FF4E1314160002181600C22C160C0E9E3
:103DF00004128161C161FFF72DFD08B1FCF786FC5B
:103E0000BDE81040012204490248FFF707BE000048
:103E100000100140080B002056000020FEE7FEE7DE
:103E2000704700002DE9F041614F624D01202DEDFA
:103E3000048B82B0D7F8006057F82010B14201D24D
:103E400028810E46401CC0B20428F5D35948298960
:103E5000243000EBC100B1EE040AD0ED000A491C89
:103E600020EE801AF2EE080AC1EE201AC5ED071AFC
:103E700090ED011A002021EE000A80EE201A85ED57
:103E8000081A00F051FC00249FED4B8ADFED4B8AAD
:103E9000DFF81C81A8F130089FED499A57F82400FB
:103EA00048A2801B00EE100A08EB8400B8EE400A1E
:103EB00060EE080A80EEA80A80ED000A20EE090AEA
:103EC000A01DC0B2BDEEC00A10EE101A00F0DAFB61
:103ED000641CE4B2042CE1D3FCF7D8FC95ED070A8E
:103EE0009FED3A1A0120F0EEC00AC0EE811AFDEEF5
:103EF000E10A10EE901A40FA81F1D5ED080A49B2B4
:103F0000F0EEE01A81EE812ABDEEC21A11EE102AFF
:103F100040FA82F0B5EEC00A44B2F1EE10FA01D2D6
:103F2000484241B2F5EEC00AF1EE10FA01D2604209
:103F300044B2012000F0F8FB2146022000F0F4FB1F
:103F400023A000F011FED5ED080A9FED240A30EE03
:103F5000601ADFED230AC1EE201A9FED221A61EEEE
:103F6000811AFCEEE11A11EE900AD5ED071A81B222
:103F700031EE800A1820B1FBF0F1C0EE201A01EBFF
:103F80004101CA000346009021EE810ABCEEC00A3E
:103F900010EE101A89B2B1FBF0F101EB4101C9003A
:103FA00011A000F0E1FD02B0BDEC048BBDE8F08192
:103FB000B8000020040000200000AA43A037A04C55
:103FC00000007A44706167653100000000004842DB
:103FD000706167652030FFFFFF00000000007A433A
:103FE0000000FA430000704366696C6C2025642C65
:103FF00025642C25642C25642C524544FFFFFF00CA
:104000007047FDF7DBBC000030B593B03021684647
:10401000FCF710F914210CA8FCF70CF91B4800253B
:10402000016841F080510160006800F080501190FB
:104030001748016841F4804101600068022400F4DF
:104040008040119001200090000401908001CDE992
:10405000064008AA0420A82182E813000B906846B5
:10406000FDF73EFF70B90CA90F2081E831004FF435
:10407000A0500F90E002109005210CA8FDF7BAFDAA
:10408000002801D0FCF742FB13B030BD403802409D
:10409000007000400248016841F4700101607047FF
:1040A00088ED00E00148FEF72ABE0000C0090020AC
:1040B000F0B50268254C264D264E274F274B4FF072
:1040C000804CA04209D0604507D0A84205D0B0423C
:1040D00003D0B84201D0984204D122F0700E4A6851
:1040E00042EA0E02A0421BD0604519D0A84217D068
:1040F000B04215D0B84213D0984211D0184DA84202
:104100000ED0184DA8420BD0174DA84208D0174D1D
:10411000A84205D0164DA84202D0164DA84203D1A0
:1041200022F44075CA682A434D6922F080022A436E
:1041300002608A68C2620A688262A04201D0984224
:1041400001D10969016301214161F0BD0000014015
:104150000004004000080040000C00400004014042
:104160000040014000440140004801400018004068
:10417000001C00400020004070B50446224816464E
:104180000D46844225D0B4F1804F22D01F4884428E
:104190001FD01F4884421CD01E48844219D01E489C
:1041A000844216D01D48844213D01D48844210D04A
:1041B0001C4884420DD01C4884420AD01B488442CB
:1041C00007D01B48844204D041F6945119A001F055
:1041D00039F865B1042D0AD0082D08D00C2D06D071
:1041E0003C2D04D041F6955112A001F02BF805F0BA
:1041F0001F010120226A884082432262206A8E4089
:104200003043206270BD0000000001400004004007
:1042100000080040000C0040000401400040014044
:10422000004401400048014000180040001C0040CC
:10423000002000402E2E2F447269766572732F5332
:10424000544D3332463478785F48414C5F4472694C
:104250007665722F5372632F73746D3332663478C0
:10426000785F68616C5F74696D2E630010B5846857
:1042700042EA032224F47F440A432243826010BDB1
:10428000826822F070020A4342F0070181607047A1
:104290002DE9F0470446006A0D4620F00100206237
:1042A000206A6768A169AE6821F07302296820F06E
:1042B0000200DFF880900643DFF87CA041EA0208A4
:1042C0004C4501D054450ED1E86830B1082804D0DF
:1042D00041F6C72119A000F0B5FFE86826F00801F3
:1042E000084320F004064C4501D0544519D1A86973
:1042F000B0F5007F05D020B141F6D4210FA000F029
:10430000A1FF6869B0F5807F05D020B141F6D521C5
:104310000AA000F097FF27F440716869AF6908436D
:1043200007436760C4F81880686860632662BDE868
:10433000F087000000000140000401402E2E2F44B1
:104340007269766572732F53544D333246347878E0
:104350005F48414C5F4472697665722F5372632FD8
:1043600073746D3332663478785F68616C5F74693A
:104370006D2E63002DE9F0470446006A0D4620F0DB
:1043800010002062206A6768A1692A6821F4E6416A
:1043900041EA0228A968DFF8889020F02000DFF8C1
:1043A00084A040EA01164C4501D054450FD1E8687D
:1043B00030B1082804D041F612311BA000F042FFB2
:1043C000E96826F0800040EA011020F040064C45E4
:1043D00001D054451BD1A869B0F5007F05D020B1AC
:1043E0004FF4D95110A000F02DFF6869B0F5807F1F
:1043F00005D020B141F621310BA000F023FF6969FF
:1044000027F4406040EA8100A96940EA81076760BB
:10441000C4F818806868A0632662BDE8F0870000D1
:1044200000000140000401402E2E2F447269766581
:1044300072732F53544D3332463478785F48414C71
:104440005F4472697665722F5372632F73746D3394
:1044500032663478785F68616C5F74696D2E6300D2
:104460002DE9F0470446006A0D4620F48070206272
:10447000206A6768E169DFF8949021F07302296887
:1044800020F4007041EA0208A968DFF884A040EA3D
:1044900001264C4501D054450FD1E86830B10828B9
:1044A00004D041F65D311BA000F0CCFEE96826F493
:1044B000006040EA012020F480664C4501D054455C
:1044C0001BD1A869B0F5007F05D020B141F66A3153
:1044D00010A000F0B7FE6869B0F5807F05D020B16C
:1044E00041F66B310BA000F0ADFE696927F4405036
:1044F00040EA0110A96940EA01176760C4F81C800E
:104500006868E0632662BDE8F087000000000140B3
:10451000000401402E2E2F447269766572732F536A
:10452000544D3332463478785F48414C5F44726969
:104530007665722F5372632F73746D3332663478DD
:10454000785F68616C5F74696D2E63002DE9F041DE
:104550000446006A0D4620F480502062206A666896
:10456000E1692A6821F4E64141EA0228A96820F4B9
:10457000005040EA01370E48844202D00D48844280
:104580000ED16869B0F5807F05D020B141F6A93120
:1045900009A000F057FE696926F4804040EA8116C0
:1045A0006660C4F81C80686820642762BDE8F081FA
:1045B00000000140000401402E2E2F4472697665F0
:1045C00072732F53544D3332463478785F48414CE0
:1045D0005F4472697665722F5372632F73746D3303
:1045E00032663478785F68616C5F74696D2E630041
:1045F00010B5036A046A24F001040462846924F09B
:10460000F00444EA021423F00A020A4384610262BD
:1046100010BD10B5036A23F0100303628369046AB6
:1046200023F4704343EA023224F0A00343EA011169
:104630008261016210BD00000649B1FBF0F006493D
:10464000401E0A68D0620A68400890630968012029
:104650004861704700BD01057809002038B504465F
:1046600007A0006800902046FBF7EFFD00216A4696
:10467000535C2354401C491C0329F9DB38BD00005E
:10468000FFFFFF0070B58AB00C4605461646202194
:1046900001A8FBF7CFFD2B46324607A101A80094E5
:1046A00000F072FA01A8FBF7D0FD81B201A800F07A
:1046B00049FA0AB070BD000025732E6E25642E766F
:1046C000616C3D2564FFFFFF0000000001A000F0C9
:1046D0004BBA000000FFFFFF00000000011E4FF07A
:1046E00000004FF00A0205DC07E000BF91FBF2F189
:1046F000401CC0B20029F9D1704701D10120704798
:10470000494203E091FBF2F1401CC0B20029F9D10B
:10471000401CC0B27047000001A000F025BA0000A4
:1047200072657374FFFFFF00AFF300802DE9F04165
:104730000D460746FFF7D2FF04462846FFF7CEFF97
:1047400020441030C4B2204600F0DEFE064621466A
:10475000FBF770FD2B463A4607A1304600F014FAED
:104760003046FFF77BFFC1B2304600F0EBF9304630
:10477000BDE8F04100F098BD6E25642E76616C3D79
:104780002564000010B5806B0021C185C184FEF74F
:1047900027FF10BD01680C3151E8002F22F4907200
:1047A00041E80023002BF5D10168143151E8002FB6
:1047B00022F0010241E80023002BF5D1016B012911
:1047C00009D101680C3151E8002F22F0100241E8B4
:1047D0000023002BF5D1202180F83E100021016339
:1047E000704700000E4900220A704A708A70CA7031
:1047F0000A7102780120882A0CD005DC652A0DD0C8
:10480000662A00D1C8707047FD2A05D0FE2AFAD169
:10481000487070470870704788707047087170471B
:104820004C00002008B590F83E10222901D002204B
:1048300008BD82684FF480539A4201D1016921B1C9
:10484000816A9A421BD04AB10AE00268816A5268C2
:10485000C2F308020A80816A891C08E0026972B109
:104860000268526802F07F020A70816A491C816204
:10487000C18D491E0904090CC18503D019E00268E5
:104880005268F1E70168CA6822F02002CA60016834
:10489000CA6822F48072CA6001684A6922F0010283
:1048A0004A61202180F83E10016B012903D0FFF7F7
:1048B000CBF8002008BD0021016301680C3151E8EC
:1048C000002F22F0100241E80023002BF5D10168EF
:1048D0000A68D20602D50A6849680091818DFEF700
:1048E0007EFEE6E770B5044640685449884204D924
:1048F00040F6616152A000F0A5FCE06838B1B0F567
:10490000005F04D040F662614DA000F09BFC20697E
:1049100050B1B0F5806F07D0B0F5C06F04D040F64D
:10492000636147A000F08EFC60694FF6F3710842A6
:1049300000D120B940F6646141A000F083FC2068FA
:104940000169E26821F44051114301612169A068C5
:10495000E26908436169114322680843D16849F25A
:104960000C6399430143D16020684169A26921F435
:1049700040711143416141492068884202D0404959
:10498000884202D1FDF76CFA01E0FDF759FAE269BD
:104990000023192164253226B2F5004F626828D021
:1049A000A0FB0101930F9200FBF70CFC0146B0FB4A
:1049B000F5F06FF01802504301EB800006EB001099
:1049C000B0FBF5F000F0F002B1FBF5F002EB0012E5
:1049D000B1FBF5F06FF01803584301EB800006EBD4
:1049E0000010B0FBF5F000F00F0021681044886063
:1049F00070BDA0FB010192185B41FBF7E3FB014690
:104A0000B0FBF5F00201B1FBF5F06FF0180358436D
:104A100001EB800006EBC000B0FBF5F000F0F80001
:104A200002EB4002B1FBF5F0584301EB800006EBCE
:104A3000C000B0FBF5F000F00700D6E7A037A000FB
:104A40002E2E2F447269766572732F53544D333274
:104A5000463478785F48414C5F4472697665722FBE
:104A60005372632F73746D3332663478785F686184
:104A70006C5F756172742E630000000000100140CD
:104A80000014014081628285C285002101642222D6
:104A900080F83E2080F83C10016921B10168CA68A5
:104AA00042F48072CA6001684A6942F001024A61B8
:104AB0000068C16841F02001C160002070472DE905
:104AC000F041984617460E460446069D27E0681CAE
:104AD00025D02DB1FCF76CFFA0EB0800A8421ED931
:104AE00020680C3050E8001F21F4D07140E800121B
:104AF000002AF5D12068143050E8001F21F0010190
:104B000040E80012002AF5D1202084F83D0084F806
:104B10003E00002084F83C000320BDE8F0812068BE
:104B2000006836EA000004D00020B842CFD0002050
:104B3000F3E70120F9E700000148FEF757BD000048
:104B4000080B00200A4610B501464FF6FF730448D3
:104B5000FEF7BEFF0248FEF744FD2128FAD010BD43
:104B6000080B0020FEE700000FB4054B10B503A9A9
:104B7000044A029800F084FA10BC5DF814FB0000AF
:104B800095520008680000200FB4084B10B504A926
:104B900002AA039800F074FA044602A9002000F06B
:104BA0004BFB204610BC5DF814FB00003952000896
:104BB0004100080218BF04200A0E18BF40F001008F
:104BC0004FF07F4232EA010108BF40F002000128A5
:104BD00008BF0520704700280DDB00F01F020121EF
:104BE00091404009800000F1E020C0F88011BFF33F
:104BF0004F8FBFF36F8F704700280DDB00F01F024F
:104C0000012191404009800000F1E020C0F88011AE
:104C1000BFF34F8FBFF36F8F7047002809DB00F0A1
:104C20001F02012191404009800000F1E020C0F8FE
:104C30000011704700280DDB4109890001F1E021D6
:104C4000D1F8001100F01F0201209040014201D074
:104C500001207047002070470907090E002804DB77
:104C600000F1E02080F80014704700F00F0000F120
:104C7000E02080F8141D704710B510EE104A4FF078
:104C800019406849002200EB44002DED028B884258
:104C900057D8DFED650A14F0004F60EE200A14BF0C
:104CA000BEEE001AB6EE001A71EE200AFDEEE00A22
:104CB00010EE900A00EE900AF8EEE00A9FED5B1A03
:104CC00000EEC10A9FED5A1A00EEC10ADFED590A43
:104CD0009FED591A00EE201ADFED580A40EE010A46
:104CE0009FED571A574B00F0030100EE201A21EEFA
:104CF000000A7B4403EB8103D3ED000A524B7B4453
:104D000003EB810393ED001A504B41EE000A7B4404
:104D100003EB8101801091ED000A70EE800AEABB7E
:104D200000EE100AB8EEC01ADFED491A9FED490AED
:104D3000BDEC028B01EE210ABCEEC00A20EE200A77
:104D400010BD4FF0FF40A0431BD04FF0CE40B0EB62
:104D5000440F82BFB7EE000ABDEC028B10BD3E4887
:104D6000B0EB440F28BF012293D2022000F082F959
:104D700014F0004F15D0BDEC028BBDE8104000F0E0
:104D800061B914F5000F02BF9FED340ABDEC028B30
:104D900010BDBDEC028BBDE8104000E007E000F064
:104DA0003DB9BDEC028BBDE8104000F043B900EB0B
:104DB000D07359104FF07E5202EBC15100EE101A21
:104DC000A0EB630002EBC05060EE200A00EE100A78
:104DD00020EE208A18EE100A88B118EE100AB0F101
:104DE000FF4F15D018EE100AFFF7E2FE042808BFA7
:104DF00000F028F9B0EE480ABDEC028B10BD02208D
:104E000000F038F9BDEC028BBDE8104000F01AB993
:104E1000022000F02FF9BDEC028BBDE8104000F03D
:104E200009B900000000501E3BAAB8400070313E96
:104E3000F4FD053712BB2A3D12BB2A3EFFFFFF3EA1
:104E4000FFFF7F3FB2090000B6090000860900009D
:104E50000000004B00007E4E0000A0850000000016
:104E600010EE100A10B50023A0F50001B1F1FE4FBD
:104E700067D200BF00F500216FF07E0202EBE15C1B
:104E8000C1F302524FF07E5101EB025100EE901A35
:104E9000A0EBCC5003EB0C0100EE100A51EA02002B
:104EA00036D030EE601A70EE200A9FED3D2A3E4863
:104EB00081EE200A9FED3B1A60EE000A00EE821A96
:104EC00060EE201A61EE810A784401EE101A00EBC0
:104ED00082009FED362AB8EEC11AD0ED001A344890
:104EE00041EE021A784401EE101A00EB8200B8EE8F
:104EF000C11A90ED002ADFED2F2A01EE222AB0EE32
:104F0000001A72EE200A40EE010A31EEA00A10BD2E
:104F1000F7EE000A9FED291A30EE600ADFED260A4F
:104F200000EE201ADFED260A60EE001A40EE010ABC
:104F30009FED241A00EE201A61EE810A30EE200A5D
:104F400010BD4FF07F41B1EB400F03D2BDE81040E0
:104F500000F064B8B0F1FF4F08BF10BDB5EEC00A55
:104F6000F1EE10FA06D2012000F084F8BDE81040FE
:104F700000F058B8B5EEC00AF1EE10FA07D10220E1
:104F800000F078F800F040F8B1EE400A10BDDFED17
:104F90000E0A6FF0160320EE200A10EE100A69E7E1
:104FA00066F1CC3EAAAA2A3FFC0700000070313F00
:104FB00000080000F4FD053821ED423E0A1180BED4
:104FC000C1ABAA3EFFFFFFBE0000004B10B52DEDA8
:104FD000028BB1EEC08A18EE100A20F00040C0F13A
:104FE000FF40C00F0AD010EE100A20F00040C0F1C0
:104FF000FF40C00F04BF012000F03CF8B0EE480AAB
:10500000BDEC028B10BD0000DFED030AB7EE001A05
:1050100081EE200A704700000000000030EE000A18
:1050200070470000DFED020A80EEA00A7047000022
:10503000000000009FED020A20EE000A7047000009
:10504000000000709FED020A20EE000A7047000089
:105050000000001002E008C8121F08C1002AFAD19F
:1050600070477047002001E001C1121F002AFBD1E8
:10507000704700000149086070470000740000207C
:105080002DE9FF4F8BB09A460F460546002606E0F5
:1050900025280BD052460D9990476D1C761C287818
:1050A0000028F5D10FB03046BDE8F08F0024A046AF
:1050B0000122604900E0044315F8013F203B02FA59
:1050C00003F00842F7D128782E2817D115F8010FE0
:1050D00044F004042A280ED06FF02F022878A0F1A3
:1050E000300109290AD808EB880102EB410100EBE5
:1050F00001086D1CF2E757F8048B6D1C28786928AD
:105100003ED006DC0028CDD063280BD0642804D123
:1051100036E0732810D075284BD052460D99904731
:10512000761C85E017F8040B8DF8000000208DF840
:105130000100E946012003E057F8049B4FF0FF30DF
:1051400061074FF0000401D40AE0641C44450DDA05
:105150008442FADB19F804100029F6D106E0641C39
:105160008442FCDB19F804100029F8D1264404E03D
:1051700019F8010B52460D999047641EF8D257E07A
:1051800001CF4FF00A0B002802DA40422D2102E045
:10519000210504D52B218DF82410012103E0E1071E
:1051A00005D02021F7E70DF1200908910CE000213E
:1051B000F9E701CF4FF00A0BF9E75946FBF74CF836
:1051C00001F1300209F8012D0028F6D1ADEB0900FC
:1051D00000F1200B600701D44FF00108D84502DD33
:1051E000A8EB0B0000E000208046002406E009A8A0
:1051F0005246005D0D999047641C761C08988442C5
:10520000F5DB04E0302052460D999047761CB8F14A
:105210000001A8F10108F5DC05E019F8010B524680
:105220000D999047761CBBF10001ABF1010BF4DC4A
:105230006D1C34E7092801000A68531C0B601070CC
:10524000704700000A46014601A0FFF78DBC000030
:1052500057726F6E6720706172616D6574657273ED
:105260002076616C75653A2066696C65202573202F
:105270006F6E206C696E652025640D0A00000000C9
:1052800030EE410A70EEE10A20EE000A00EEA00ABC
:10529000FFF79CBE03490A685206FCD5C2B24A60B9
:1052A000704700000010014010B5002821D0114BBC
:1052B0000022001F196803E0814203D80A464968AA
:1052C0000029F9D152B11368841A9C4204D10068B4
:1052D00018441060104602E0506000E0186039B1D8
:1052E00002680B1A934203D10B681A4402604968A2
:1052F000416010BD6C0000202DED028BFCF766FBB9
:10530000FEF782FEFEF788FCFEF770FCFEF7E6FC77
:10531000FEF762FDFEF738FCFEF72AFDFFF7D6F92F
:10532000FFF7FAF99620FCF743F96048FDF7CAF950
:1053300040F204425E495F48FBF75AFD0A20FBF742
:1053400051F85D4CF6EE080AB5EE001A84ED060A37
:1053500020EE200AD4ED050A00EE810A84ED040A4D
:105360009FED568A56A2012020EE080ABDEEC00A23
:1053700010EE101AFFF786F9534FDFF85091DFF85F
:1053800050A1F6EE008A01264FF000080A20FBF734
:1053900029F884ED030A387890B184ED060A20EEEE
:1053A000080A47A20020BDEEC00A10EE101AFFF74F
:1053B00069F948A0FFF7D8FB87F80080A67015E0D0
:1053C00099F800004D46D8B184ED050A20EE080A90
:1053D0003BA20320BDEEC00A10EE101AFFF752F9EF
:1053E00042A0FFF7C1FB85F80080667094ED050AC6
:1053F000D4ED060A30EE200A20EE280A84ED040AD5
:1054000094ED030AD4ED040AB4EEE00AF1EE10FACA
:1054100003D2A0786178084209D1002210215046B9
:10542000FCF790FA0520FCF7C3F82670AEE7FBF70F
:10543000D9F8012210215046FCF784FA207878B37D
:10544000E07800284FF0060012D0FFF7C4FB0720D9
:10545000FFF7C1FB0820FFF7BEFB0920FFF7BBFBEE
:105460003220FFF7B8FB84F8008084F803808DE7D2
:10547000FFF7E0FB05460720FFF7DCFB05430820AC
:10548000FFF7D8FB05430920FFF7D4FB0543D5D12F
:105490003220FFF7A0FB84F80080FEF7C3FC75E71D
:1054A000FFE71848FDF7A2F970E70000780900202F
:1054B000C8000020D00800200400002000007A442A
:1054C0007061676531000000500000204F0000202F
:1054D0000008024070616765312E6E302E70636F78
:1054E0003D32303233FFFFFF00000000706167651E
:1054F000312E6E332E70636F3D32303233FFFFFF3B
:1055000000000000C0090020F0B50B30154D20F060
:1055100007010024144A0FE003688B420BD38B422F
:1055200005D95E1A43184768C3E9006700E043687D
:10553000136002C004E0021D10680028ECD1204670
:10554000002802D1286808B10020F0BD064A0748AB
:105550001060074A121A22F00702C0E90024012055
:105560002860D7E7700000206C000020540B00205A
:10557000500D00202DE9F74F804682B0894601206A
:10558000834648456ED2002767E000BF07EB0B0655
:10559000761E4E4563D206EB0B00A9F1010188424D
:1055A00000D908468246C01B401C00903C46751C32
:1055B0008000FFF7A9FF00211DE000BF08EB840277
:1055C000D2ED000A08EB850292ED000AF4EEC00A63
:1055D000F1EE10FA01D8012300E00023049A93426F
:1055E00003D1B0EE600A641C00E06D1C00EB810288
:1055F000491C82ED000AB4420CD85545DED909E0B9
:1056000008EB840292ED000A00EB8102491C82ED56
:10561000000A641CB442F3D90AE000BF08EB85021B
:1056200092ED000A00EB8102491C82ED000A6D1C1C
:105630005545F3D9002109E000EB8102CB1992ED29
:10564000000A08EB8302491C82ED000A009A91428D
:10565000F2D3FFF729FE07EB4B074F4596D34FEAEE
:105660004B008DE705B0BDE8F08F20EE000A00EE9C
:10567000A00AFFF7ABBC00061016000610160000CB
:1056800000000000000001020304060708090000F2
:1056900000000102030400000000803F0030983F3A
:1056A0000000B53F0040D73F00000000320A7E39BD
:1056B0007F661E395B991F390000803FF037983FA5
:1056C000F304B53FFD44D73F000000000030F13D3A
:1056D0000070643E0000A33E0090CF3E0090F83E74
:1056E00000400F3F00E0203F0000000015B7833767
:1056F000CDE37B380EE1C53860F69138AF5F0F38E7
:10570000E1BC3E3823F44739285700080000002048
:105710007800000054500008A057000878000020CE
:10572000D81C0000645000080000000000010100C7
:1057300032000F0000000000000000009A99993F1D
:105740000000000000000000000000000000000059
:105750000000964300009643000096C30000964365
:10576000000096C3000096C300009643000096C355
:105770000000000000000000000000000000000029
:105780000100000010000000000000000024F400F0
:105790000000000000000000000000000000000009
:040000050800018965
:00000001FF
